{
  "_format": "hh-sol-artifact-1",
  "contractName": "AdminFactory",
  "sourceName": "contracts/AdminFactory.sol",
  "abi": [
    {
      "anonymous": false,
      "inputs": [
        {
          "indexed": false,
          "internalType": "uint16",
          "name": "",
          "type": "uint16"
        },
        {
          "indexed": false,
          "internalType": "string",
          "name": "",
          "type": "string"
        },
        {
          "indexed": false,
          "internalType": "string",
          "name": "",
          "type": "string"
        },
        {
          "indexed": false,
          "internalType": "address",
          "name": "",
          "type": "address"
        },
        {
          "indexed": false,
          "internalType": "string",
          "name": "",
          "type": "string"
        }
      ],
      "name": "adminCreated",
      "type": "event"
    },
    {
      "inputs": [
        {
          "internalType": "string",
          "name": "_firstName",
          "type": "string"
        },
        {
          "internalType": "string",
          "name": "_lastName",
          "type": "string"
        },
        {
          "internalType": "string",
          "name": "_email",
          "type": "string"
        },
        {
          "internalType": "address",
          "name": "_account",
          "type": "address"
        }
      ],
      "name": "createAdmin",
      "outputs": [],
      "stateMutability": "nonpayable",
      "type": "function"
    },
    {
      "inputs": [
        {
          "internalType": "address",
          "name": "account",
          "type": "address"
        }
      ],
      "name": "getAdminByAccount",
      "outputs": [
        {
          "internalType": "uint16",
          "name": "",
          "type": "uint16"
        },
        {
          "internalType": "string",
          "name": "",
          "type": "string"
        },
        {
          "internalType": "string",
          "name": "",
          "type": "string"
        },
        {
          "internalType": "address",
          "name": "",
          "type": "address"
        },
        {
          "internalType": "string",
          "name": "",
          "type": "string"
        }
      ],
      "stateMutability": "view",
      "type": "function"
    },
    {
      "inputs": [
        {
          "internalType": "uint16",
          "name": "_id",
          "type": "uint16"
        }
      ],
      "name": "getAdminById",
      "outputs": [
        {
          "internalType": "uint16",
          "name": "",
          "type": "uint16"
        },
        {
          "internalType": "string",
          "name": "",
          "type": "string"
        },
        {
          "internalType": "string",
          "name": "",
          "type": "string"
        },
        {
          "internalType": "address",
          "name": "",
          "type": "address"
        },
        {
          "internalType": "string",
          "name": "",
          "type": "string"
        }
      ],
      "stateMutability": "view",
      "type": "function"
    },
    {
      "inputs": [],
      "name": "getAdminsLength",
      "outputs": [
        {
          "internalType": "uint256",
          "name": "",
          "type": "uint256"
        }
      ],
      "stateMutability": "view",
      "type": "function"
    },
    {
      "inputs": [],
      "name": "getCurrentId",
      "outputs": [
        {
          "internalType": "uint16",
          "name": "",
          "type": "uint16"
        }
      ],
      "stateMutability": "view",
      "type": "function"
    },
    {
      "inputs": [
        {
          "internalType": "address",
          "name": "_account",
          "type": "address"
        }
      ],
      "name": "isAdminUnique",
      "outputs": [
        {
          "internalType": "bool",
          "name": "",
          "type": "bool"
        }
      ],
      "stateMutability": "view",
      "type": "function"
    }
  ],
  "bytecode": "0x608060405234801561001057600080fd5b506124bf806100206000396000f3fe60806040523480156200001157600080fd5b50600436106200006a5760003560e01c80632a3e8a53146200006f57806335b9b2bb14620000a957806337267bc314620000e35780636c14386214620001055780638d965d8c146200012757806395ed6efd146200015d575b600080fd5b6200008d600480360381019062000087919062001122565b6200017d565b604051620000a09594939291906200124e565b60405180910390f35b620000c76004803603810190620000c19190620012f1565b620006b6565b604051620000da9594939291906200124e565b60405180910390f35b620000ed62000c13565b604051620000fc91906200133e565b60405180910390f35b6200010f62000c20565b6040516200011e91906200135b565b60405180910390f35b6200014560048036038101906200013f9190620012f1565b62000c37565b60405162000154919062001395565b60405180910390f35b6200017b600480360381019062000175919062001503565b62000d70565b005b60006060806000606060005b6001805490508110156200066f578661ffff1660018281548110620001b357620001b2620015d2565b5b9060005260206000200160009054906101000a900473ffffffffffffffffffffffffffffffffffffffff1673ffffffffffffffffffffffffffffffffffffffff16635d1ca6316040518163ffffffff1660e01b815260040160206040518083038186803b1580156200022457600080fd5b505afa15801562000239573d6000803e3d6000fd5b505050506040513d601f19601f820116820180604052508101906200025f919062001618565b61ffff161415620006595760018181548110620002815762000280620015d2565b5b9060005260206000200160009054906101000a900473ffffffffffffffffffffffffffffffffffffffff1673ffffffffffffffffffffffffffffffffffffffff16635d1ca6316040518163ffffffff1660e01b815260040160206040518083038186803b158015620002f257600080fd5b505afa15801562000307573d6000803e3d6000fd5b505050506040513d601f19601f820116820180604052508101906200032d919062001618565b60018281548110620003445762000343620015d2565b5b9060005260206000200160009054906101000a900473ffffffffffffffffffffffffffffffffffffffff1673ffffffffffffffffffffffffffffffffffffffff1663932997f16040518163ffffffff1660e01b815260040160006040518083038186803b158015620003b557600080fd5b505afa158015620003ca573d6000803e3d6000fd5b505050506040513d6000823e3d601f19601f82011682018060405250810190620003f59190620016c8565b600183815481106200040c576200040b620015d2565b5b9060005260206000200160009054906101000a900473ffffffffffffffffffffffffffffffffffffffff1673ffffffffffffffffffffffffffffffffffffffff16636b1092826040518163ffffffff1660e01b815260040160006040518083038186803b1580156200047d57600080fd5b505afa15801562000492573d6000803e3d6000fd5b505050506040513d6000823e3d601f19601f82011682018060405250810190620004bd9190620016c8565b60018481548110620004d457620004d3620015d2565b5b9060005260206000200160009054906101000a900473ffffffffffffffffffffffffffffffffffffffff1673ffffffffffffffffffffffffffffffffffffffff1663db613e816040518163ffffffff1660e01b815260040160206040518083038186803b1580156200054557600080fd5b505afa1580156200055a573d6000803e3d6000fd5b505050506040513d601f19601f8201168201806040525081019062000580919062001730565b60018581548110620005975762000596620015d2565b5b9060005260206000200160009054906101000a900473ffffffffffffffffffffffffffffffffffffffff1673ffffffffffffffffffffffffffffffffffffffff16637e79e8ba6040518163ffffffff1660e01b815260040160006040518083038186803b1580156200060857600080fd5b505afa1580156200061d573d6000803e3d6000fd5b505050506040513d6000823e3d601f19601f82011682018060405250810190620006489190620016c8565b9550955095509550955050620006ad565b8080620006669062001791565b91505062000189565b506040517f08c379a0000000000000000000000000000000000000000000000000000000008152600401620006a49062001855565b60405180910390fd5b91939590929450565b60006060806000606060005b60018054905081101562000bcc578673ffffffffffffffffffffffffffffffffffffffff1660018281548110620006fe57620006fd620015d2565b5b9060005260206000200160009054906101000a900473ffffffffffffffffffffffffffffffffffffffff1673ffffffffffffffffffffffffffffffffffffffff1663db613e816040518163ffffffff1660e01b815260040160206040518083038186803b1580156200076f57600080fd5b505afa15801562000784573d6000803e3d6000fd5b505050506040513d601f19601f82011682018060405250810190620007aa919062001730565b73ffffffffffffffffffffffffffffffffffffffff16141562000bb65760018181548110620007de57620007dd620015d2565b5b9060005260206000200160009054906101000a900473ffffffffffffffffffffffffffffffffffffffff1673ffffffffffffffffffffffffffffffffffffffff16635d1ca6316040518163ffffffff1660e01b815260040160206040518083038186803b1580156200084f57600080fd5b505afa15801562000864573d6000803e3d6000fd5b505050506040513d601f19601f820116820180604052508101906200088a919062001618565b60018281548110620008a157620008a0620015d2565b5b9060005260206000200160009054906101000a900473ffffffffffffffffffffffffffffffffffffffff1673ffffffffffffffffffffffffffffffffffffffff1663932997f16040518163ffffffff1660e01b815260040160006040518083038186803b1580156200091257600080fd5b505afa15801562000927573d6000803e3d6000fd5b505050506040513d6000823e3d601f19601f82011682018060405250810190620009529190620016c8565b60018381548110620009695762000968620015d2565b5b9060005260206000200160009054906101000a900473ffffffffffffffffffffffffffffffffffffffff1673ffffffffffffffffffffffffffffffffffffffff16636b1092826040518163ffffffff1660e01b815260040160006040518083038186803b158015620009da57600080fd5b505afa158015620009ef573d6000803e3d6000fd5b505050506040513d6000823e3d601f19601f8201168201806040525081019062000a1a9190620016c8565b6001848154811062000a315762000a30620015d2565b5b9060005260206000200160009054906101000a900473ffffffffffffffffffffffffffffffffffffffff1673ffffffffffffffffffffffffffffffffffffffff1663db613e816040518163ffffffff1660e01b815260040160206040518083038186803b15801562000aa257600080fd5b505afa15801562000ab7573d6000803e3d6000fd5b505050506040513d601f19601f8201168201806040525081019062000add919062001730565b6001858154811062000af45762000af3620015d2565b5b9060005260206000200160009054906101000a900473ffffffffffffffffffffffffffffffffffffffff1673ffffffffffffffffffffffffffffffffffffffff16637e79e8ba6040518163ffffffff1660e01b815260040160006040518083038186803b15801562000b6557600080fd5b505afa15801562000b7a573d6000803e3d6000fd5b505050506040513d6000823e3d601f19601f8201168201806040525081019062000ba59190620016c8565b955095509550955095505062000c0a565b808062000bc39062001791565b915050620006c2565b506040517f08c379a000000000000000000000000000000000000000000000000000000000815260040162000c0190620018ed565b60405180910390fd5b91939590929450565b6000600180549050905090565b60008060009054906101000a900461ffff16905090565b600080600090505b60018054905081101562000d65576001818154811062000c645762000c63620015d2565b5b9060005260206000200160009054906101000a900473ffffffffffffffffffffffffffffffffffffffff1673ffffffffffffffffffffffffffffffffffffffff1663db613e816040518163ffffffff1660e01b815260040160206040518083038186803b15801562000cd557600080fd5b505afa15801562000cea573d6000803e3d6000fd5b505050506040513d601f19601f8201168201806040525081019062000d10919062001730565b73ffffffffffffffffffffffffffffffffffffffff168373ffffffffffffffffffffffffffffffffffffffff16141562000d4f57600091505062000d6b565b808062000d5c9062001791565b91505062000c3f565b50600190505b919050565b62000d7b8162000c37565b156200107e5760008060009054906101000a900461ffff1660405162000da190620010c1565b62000dad91906200135b565b604051809103906000f08015801562000dca573d6000803e3d6000fd5b5090508073ffffffffffffffffffffffffffffffffffffffff16636392f76b866040518263ffffffff1660e01b815260040162000e0891906200190f565b600060405180830381600087803b15801562000e2357600080fd5b505af115801562000e38573d6000803e3d6000fd5b505050508073ffffffffffffffffffffffffffffffffffffffff1663932754f9856040518263ffffffff1660e01b815260040162000e7791906200190f565b600060405180830381600087803b15801562000e9257600080fd5b505af115801562000ea7573d6000803e3d6000fd5b505050508073ffffffffffffffffffffffffffffffffffffffff1663282b065a846040518263ffffffff1660e01b815260040162000ee691906200190f565b600060405180830381600087803b15801562000f0157600080fd5b505af115801562000f16573d6000803e3d6000fd5b505050508073ffffffffffffffffffffffffffffffffffffffff166329f6d57c836040518263ffffffff1660e01b815260040162000f55919062001933565b600060405180830381600087803b15801562000f7057600080fd5b505af115801562000f85573d6000803e3d6000fd5b505050506001819080600181540180825580915050600190039060005260206000200160009091909190916101000a81548173ffffffffffffffffffffffffffffffffffffffff021916908373ffffffffffffffffffffffffffffffffffffffff1602179055507fa2ff1c8ef0f58becc768593b21b7a70bf12ee09801608da914469ae095c36db760008054906101000a900461ffff1686868587604051620010339594939291906200124e565b60405180910390a160008081819054906101000a900461ffff16809291906200105c9062001950565b91906101000a81548161ffff021916908361ffff1602179055505050620010bb565b6040517f08c379a0000000000000000000000000000000000000000000000000000000008152600401620010b290620019d0565b60405180910390fd5b50505050565b610a9780620019f383390190565b6000604051905090565b600080fd5b600080fd5b600061ffff82169050919050565b620010fc81620010e3565b81146200110857600080fd5b50565b6000813590506200111c81620010f1565b92915050565b6000602082840312156200113b576200113a620010d9565b5b60006200114b848285016200110b565b91505092915050565b6200115f81620010e3565b82525050565b600081519050919050565b600082825260208201905092915050565b60005b83811015620011a157808201518184015260208101905062001184565b83811115620011b1576000848401525b50505050565b6000601f19601f8301169050919050565b6000620011d58262001165565b620011e1818562001170565b9350620011f381856020860162001181565b620011fe81620011b7565b840191505092915050565b600073ffffffffffffffffffffffffffffffffffffffff82169050919050565b6000620012368262001209565b9050919050565b620012488162001229565b82525050565b600060a08201905062001265600083018862001154565b8181036020830152620012798187620011c8565b905081810360408301526200128f8186620011c8565b9050620012a060608301856200123d565b8181036080830152620012b48184620011c8565b90509695505050505050565b620012cb8162001229565b8114620012d757600080fd5b50565b600081359050620012eb81620012c0565b92915050565b6000602082840312156200130a5762001309620010d9565b5b60006200131a84828501620012da565b91505092915050565b6000819050919050565b620013388162001323565b82525050565b60006020820190506200135560008301846200132d565b92915050565b600060208201905062001372600083018462001154565b92915050565b60008115159050919050565b6200138f8162001378565b82525050565b6000602082019050620013ac600083018462001384565b92915050565b600080fd5b600080fd5b7f4e487b7100000000000000000000000000000000000000000000000000000000600052604160045260246000fd5b620013f682620011b7565b810181811067ffffffffffffffff82111715620014185762001417620013bc565b5b80604052505050565b60006200142d620010cf565b90506200143b8282620013eb565b919050565b600067ffffffffffffffff8211156200145e576200145d620013bc565b5b6200146982620011b7565b9050602081019050919050565b82818337600083830152505050565b60006200149c620014968462001440565b62001421565b905082815260208101848484011115620014bb57620014ba620013b7565b5b620014c884828562001476565b509392505050565b600082601f830112620014e857620014e7620013b2565b5b8135620014fa84826020860162001485565b91505092915050565b6000806000806080858703121562001520576200151f620010d9565b5b600085013567ffffffffffffffff811115620015415762001540620010de565b5b6200154f87828801620014d0565b945050602085013567ffffffffffffffff811115620015735762001572620010de565b5b6200158187828801620014d0565b935050604085013567ffffffffffffffff811115620015a557620015a4620010de565b5b620015b387828801620014d0565b9250506060620015c687828801620012da565b91505092959194509250565b7f4e487b7100000000000000000000000000000000000000000000000000000000600052603260045260246000fd5b6000815190506200161281620010f1565b92915050565b600060208284031215620016315762001630620010d9565b5b6000620016418482850162001601565b91505092915050565b6000620016616200165b8462001440565b62001421565b90508281526020810184848401111562001680576200167f620013b7565b5b6200168d84828562001181565b509392505050565b600082601f830112620016ad57620016ac620013b2565b5b8151620016bf8482602086016200164a565b91505092915050565b600060208284031215620016e157620016e0620010d9565b5b600082015167ffffffffffffffff811115620017025762001701620010de565b5b620017108482850162001695565b91505092915050565b6000815190506200172a81620012c0565b92915050565b600060208284031215620017495762001748620010d9565b5b6000620017598482850162001719565b91505092915050565b7f4e487b7100000000000000000000000000000000000000000000000000000000600052601160045260246000fd5b60006200179e8262001323565b91507fffffffffffffffffffffffffffffffffffffffffffffffffffffffffffffffff821415620017d457620017d362001762565b5b600182019050919050565b7f41646d696e20776974682074686973206964206973206e6f74204e6f7420666f60008201527f756e640000000000000000000000000000000000000000000000000000000000602082015250565b60006200183d60238362001170565b91506200184a82620017df565b604082019050919050565b6000602082019050818103600083015262001870816200182e565b9050919050565b7f41646d696e20776974682074686973206163636f756e7420616464726573732060008201527f6973206e6f74204e6f7420666f756e6400000000000000000000000000000000602082015250565b6000620018d560308362001170565b9150620018e28262001877565b604082019050919050565b600060208201905081810360008301526200190881620018c6565b9050919050565b600060208201905081810360008301526200192b8184620011c8565b905092915050565b60006020820190506200194a60008301846200123d565b92915050565b60006200195d82620010e3565b915061ffff82141562001975576200197462001762565b5b600182019050919050565b7f546869732061646d696e20616c72656164792065786973747300000000000000600082015250565b6000620019b860198362001170565b9150620019c58262001980565b602082019050919050565b60006020820190508181036000830152620019eb81620019a9565b905091905056fe608060405234801561001057600080fd5b50604051610a97380380610a9783398181016040528101906100329190610094565b80600260006101000a81548161ffff021916908361ffff160217905550506100c1565b600080fd5b600061ffff82169050919050565b6100718161005a565b811461007c57600080fd5b50565b60008151905061008e81610068565b92915050565b6000602082840312156100aa576100a9610055565b5b60006100b88482850161007f565b91505092915050565b6109c7806100d06000396000f3fe608060405234801561001057600080fd5b50600436106100935760003560e01c80636b109282116100665780636b1092821461010a5780637e79e8ba14610128578063932754f914610146578063932997f114610162578063db613e811461018057610093565b8063282b065a1461009857806329f6d57c146100b45780635d1ca631146100d05780636392f76b146100ee575b600080fd5b6100b260048036038101906100ad91906106a3565b61019e565b005b6100ce60048036038101906100c9919061074a565b6101b8565b005b6100d86101fc565b6040516100e59190610794565b60405180910390f35b6101086004803603810190610103919061080f565b610214565b005b61011261022a565b60405161011f91906108e4565b60405180910390f35b6101306102bc565b60405161013d91906108e4565b60405180910390f35b610160600480360381019061015b919061080f565b61034e565b005b61016a610364565b60405161017791906108e4565b60405180910390f35b6101886103f6565b6040516101959190610915565b60405180910390f35b80600390805190602001906101b4929190610420565b5050565b80600460006101000a81548173ffffffffffffffffffffffffffffffffffffffff021916908373ffffffffffffffffffffffffffffffffffffffff16021790555050565b6000600260009054906101000a900461ffff16905090565b8181600091906102259291906104a6565b505050565b6060600180546102399061095f565b80601f01602080910402602001604051908101604052809291908181526020018280546102659061095f565b80156102b25780601f10610287576101008083540402835291602001916102b2565b820191906000526020600020905b81548152906001019060200180831161029557829003601f168201915b5050505050905090565b6060600380546102cb9061095f565b80601f01602080910402602001604051908101604052809291908181526020018280546102f79061095f565b80156103445780601f1061031957610100808354040283529160200191610344565b820191906000526020600020905b81548152906001019060200180831161032757829003601f168201915b5050505050905090565b81816001919061035f9291906104a6565b505050565b6060600080546103739061095f565b80601f016020809104026020016040519081016040528092919081815260200182805461039f9061095f565b80156103ec5780601f106103c1576101008083540402835291602001916103ec565b820191906000526020600020905b8154815290600101906020018083116103cf57829003601f168201915b5050505050905090565b6000600460009054906101000a900473ffffffffffffffffffffffffffffffffffffffff16905090565b82805461042c9061095f565b90600052602060002090601f01602090048101928261044e5760008555610495565b82601f1061046757805160ff1916838001178555610495565b82800160010185558215610495579182015b82811115610494578251825591602001919060010190610479565b5b5090506104a2919061052c565b5090565b8280546104b29061095f565b90600052602060002090601f0160209004810192826104d4576000855561051b565b82601f106104ed57803560ff191683800117855561051b565b8280016001018555821561051b579182015b8281111561051a5782358255916020019190600101906104ff565b5b509050610528919061052c565b5090565b5b8082111561054557600081600090555060010161052d565b5090565b6000604051905090565b600080fd5b600080fd5b600080fd5b600080fd5b6000601f19601f8301169050919050565b7f4e487b7100000000000000000000000000000000000000000000000000000000600052604160045260246000fd5b6105b082610567565b810181811067ffffffffffffffff821117156105cf576105ce610578565b5b80604052505050565b60006105e2610549565b90506105ee82826105a7565b919050565b600067ffffffffffffffff82111561060e5761060d610578565b5b61061782610567565b9050602081019050919050565b82818337600083830152505050565b6000610646610641846105f3565b6105d8565b90508281526020810184848401111561066257610661610562565b5b61066d848285610624565b509392505050565b600082601f83011261068a5761068961055d565b5b813561069a848260208601610633565b91505092915050565b6000602082840312156106b9576106b8610553565b5b600082013567ffffffffffffffff8111156106d7576106d6610558565b5b6106e384828501610675565b91505092915050565b600073ffffffffffffffffffffffffffffffffffffffff82169050919050565b6000610717826106ec565b9050919050565b6107278161070c565b811461073257600080fd5b50565b6000813590506107448161071e565b92915050565b6000602082840312156107605761075f610553565b5b600061076e84828501610735565b91505092915050565b600061ffff82169050919050565b61078e81610777565b82525050565b60006020820190506107a96000830184610785565b92915050565b600080fd5b600080fd5b60008083601f8401126107cf576107ce61055d565b5b8235905067ffffffffffffffff8111156107ec576107eb6107af565b5b602083019150836001820283011115610808576108076107b4565b5b9250929050565b6000806020838503121561082657610825610553565b5b600083013567ffffffffffffffff81111561084457610843610558565b5b610850858286016107b9565b92509250509250929050565b600081519050919050565b600082825260208201905092915050565b60005b8381101561089657808201518184015260208101905061087b565b838111156108a5576000848401525b50505050565b60006108b68261085c565b6108c08185610867565b93506108d0818560208601610878565b6108d981610567565b840191505092915050565b600060208201905081810360008301526108fe81846108ab565b905092915050565b61090f8161070c565b82525050565b600060208201905061092a6000830184610906565b92915050565b7f4e487b7100000000000000000000000000000000000000000000000000000000600052602260045260246000fd5b6000600282049050600182168061097757607f821691505b6020821081141561098b5761098a610930565b5b5091905056fea26469706673582212208d06aca0d27ff9b32aaedda77e71033ded814fb783a94625a680661e045a649364736f6c63430008090033a2646970667358221220a736ef30577bf8074454f9a6a51f8bb63f921bf2f53f275052fd371bbdeb5a2d64736f6c63430008090033",
  "linkReferences": {},
  "deployedLinkReferences": {}
}