{
  "_format": "hh-sol-artifact-1",
  "contractName": "LevelFactory",
  "sourceName": "contracts/LevelFactory.sol",
  "abi": [
    {
      "anonymous": false,
      "inputs": [
        {
          "indexed": false,
          "internalType": "uint16",
          "name": "id",
          "type": "uint16"
        },
        {
          "indexed": false,
          "internalType": "string",
          "name": "levelName",
          "type": "string"
        },
        {
          "indexed": false,
          "internalType": "string",
          "name": "description",
          "type": "string"
        },
        {
          "indexed": false,
          "internalType": "string",
          "name": "imgUrl",
          "type": "string"
        },
        {
          "indexed": false,
          "internalType": "uint16",
          "name": "placesLeft",
          "type": "uint16"
        },
        {
          "indexed": false,
          "internalType": "uint16",
          "name": "pathId",
          "type": "uint16"
        }
      ],
      "name": "levelCreated",
      "type": "event"
    },
    {
      "inputs": [
        {
          "internalType": "string",
          "name": "_levelName",
          "type": "string"
        },
        {
          "internalType": "string",
          "name": "_description",
          "type": "string"
        },
        {
          "internalType": "string",
          "name": "_imageUrl",
          "type": "string"
        },
        {
          "internalType": "uint16",
          "name": "_placesLeft",
          "type": "uint16"
        },
        {
          "internalType": "uint16",
          "name": "_pathId",
          "type": "uint16"
        }
      ],
      "name": "createLevel",
      "outputs": [],
      "stateMutability": "nonpayable",
      "type": "function"
    },
    {
      "inputs": [],
      "name": "getCurrentId",
      "outputs": [
        {
          "internalType": "uint16",
          "name": "",
          "type": "uint16"
        }
      ],
      "stateMutability": "view",
      "type": "function"
    },
    {
      "inputs": [
        {
          "internalType": "uint16",
          "name": "_id",
          "type": "uint16"
        }
      ],
      "name": "getLevelById",
      "outputs": [
        {
          "internalType": "uint16",
          "name": "",
          "type": "uint16"
        },
        {
          "internalType": "string",
          "name": "",
          "type": "string"
        },
        {
          "internalType": "string",
          "name": "",
          "type": "string"
        },
        {
          "internalType": "string",
          "name": "",
          "type": "string"
        },
        {
          "internalType": "uint16",
          "name": "",
          "type": "uint16"
        },
        {
          "internalType": "uint16",
          "name": "",
          "type": "uint16"
        }
      ],
      "stateMutability": "view",
      "type": "function"
    },
    {
      "inputs": [
        {
          "internalType": "uint16",
          "name": "_id",
          "type": "uint16"
        }
      ],
      "name": "getLevelObjectById",
      "outputs": [
        {
          "internalType": "contract Level",
          "name": "",
          "type": "address"
        }
      ],
      "stateMutability": "view",
      "type": "function"
    },
    {
      "inputs": [],
      "name": "getLevelsLength",
      "outputs": [
        {
          "internalType": "uint256",
          "name": "",
          "type": "uint256"
        }
      ],
      "stateMutability": "view",
      "type": "function"
    },
    {
      "inputs": [
        {
          "internalType": "uint256",
          "name": "",
          "type": "uint256"
        }
      ],
      "name": "levels",
      "outputs": [
        {
          "internalType": "contract Level",
          "name": "",
          "type": "address"
        }
      ],
      "stateMutability": "view",
      "type": "function"
    }
  ],
  "bytecode": "0x608060405234801561001057600080fd5b50611dfa806100206000396000f3fe608060405234801561001057600080fd5b50600436106100625760003560e01c80633feaadec146100675780634eefe23d146100835780636c143862146100b8578063b2596a67146100d6578063d4d46b7c14610106578063f110ecff14610124575b600080fd5b610081600480360381019061007c9190610e2c565b610154565b005b61009d60048036038101906100989190610efb565b6104f4565b6040516100af96959493929190610fbf565b60405180910390f35b6100c0610aba565b6040516100cd9190611035565b60405180910390f35b6100f060048036038101906100eb9190611086565b610ad1565b6040516100fd9190611132565b60405180910390f35b61010e610b10565b60405161011b919061115c565b60405180910390f35b61013e60048036038101906101399190610efb565b610b2b565b60405161014b9190611132565b60405180910390f35b61015d85610b77565b156104b25760008060009054906101000a900461ffff1660405161018090610c8a565b61018a9190611035565b604051809103906000f0801580156101a6573d6000803e3d6000fd5b5090508073ffffffffffffffffffffffffffffffffffffffff1663906315b1876040518263ffffffff1660e01b81526004016101e29190611177565b600060405180830381600087803b1580156101fc57600080fd5b505af1158015610210573d6000803e3d6000fd5b505050508073ffffffffffffffffffffffffffffffffffffffff166390c3f38f866040518263ffffffff1660e01b815260040161024d9190611177565b600060405180830381600087803b15801561026757600080fd5b505af115801561027b573d6000803e3d6000fd5b505050508073ffffffffffffffffffffffffffffffffffffffff16632abff1f2856040518263ffffffff1660e01b81526004016102b89190611177565b600060405180830381600087803b1580156102d257600080fd5b505af11580156102e6573d6000803e3d6000fd5b505050508073ffffffffffffffffffffffffffffffffffffffff1663cf156d7e846040518263ffffffff1660e01b81526004016103239190611035565b600060405180830381600087803b15801561033d57600080fd5b505af1158015610351573d6000803e3d6000fd5b505050508073ffffffffffffffffffffffffffffffffffffffff166385cef8f3836040518263ffffffff1660e01b815260040161038e9190611035565b600060405180830381600087803b1580156103a857600080fd5b505af11580156103bc573d6000803e3d6000fd5b505050506001819080600181540180825580915050600190039060005260206000200160009091909190916101000a81548173ffffffffffffffffffffffffffffffffffffffff021916908373ffffffffffffffffffffffffffffffffffffffff1602179055507f9aac676ea7a5b160eaaae0e39021e42910092d095acfddd302993bcb6fd3153b60008054906101000a900461ffff16878787878760405161046a96959493929190610fbf565b60405180910390a160008081819054906101000a900461ffff1680929190610491906111c8565b91906101000a81548161ffff021916908361ffff16021790555050506104ed565b6040517f08c379a00000000000000000000000000000000000000000000000000000000081526004016104e49061123f565b60405180910390fd5b5050505050565b6000606080606060008060005b600180549050811015610a75578761ffff16600182815481106105275761052661125f565b5b9060005260206000200160009054906101000a900473ffffffffffffffffffffffffffffffffffffffff1673ffffffffffffffffffffffffffffffffffffffff16630e06622e6040518163ffffffff1660e01b815260040160206040518083038186803b15801561059757600080fd5b505afa1580156105ab573d6000803e3d6000fd5b505050506040513d601f19601f820116820180604052508101906105cf91906112a3565b61ffff161415610a6257600181815481106105ed576105ec61125f565b5b9060005260206000200160009054906101000a900473ffffffffffffffffffffffffffffffffffffffff1673ffffffffffffffffffffffffffffffffffffffff16630e06622e6040518163ffffffff1660e01b815260040160206040518083038186803b15801561065d57600080fd5b505afa158015610671573d6000803e3d6000fd5b505050506040513d601f19601f8201168201806040525081019061069591906112a3565b600182815481106106a9576106a861125f565b5b9060005260206000200160009054906101000a900473ffffffffffffffffffffffffffffffffffffffff1673ffffffffffffffffffffffffffffffffffffffff1663f114404c6040518163ffffffff1660e01b815260040160006040518083038186803b15801561071957600080fd5b505afa15801561072d573d6000803e3d6000fd5b505050506040513d6000823e3d601f19601f820116820180604052508101906107569190611340565b6001838154811061076a5761076961125f565b5b9060005260206000200160009054906101000a900473ffffffffffffffffffffffffffffffffffffffff1673ffffffffffffffffffffffffffffffffffffffff16631a0925416040518163ffffffff1660e01b815260040160006040518083038186803b1580156107da57600080fd5b505afa1580156107ee573d6000803e3d6000fd5b505050506040513d6000823e3d601f19601f820116820180604052508101906108179190611340565b6001848154811061082b5761082a61125f565b5b9060005260206000200160009054906101000a900473ffffffffffffffffffffffffffffffffffffffff1673ffffffffffffffffffffffffffffffffffffffff16639743a6916040518163ffffffff1660e01b815260040160006040518083038186803b15801561089b57600080fd5b505afa1580156108af573d6000803e3d6000fd5b505050506040513d6000823e3d601f19601f820116820180604052508101906108d89190611340565b600185815481106108ec576108eb61125f565b5b9060005260206000200160009054906101000a900473ffffffffffffffffffffffffffffffffffffffff1673ffffffffffffffffffffffffffffffffffffffff16639dbd916b6040518163ffffffff1660e01b815260040160206040518083038186803b15801561095c57600080fd5b505afa158015610970573d6000803e3d6000fd5b505050506040513d601f19601f8201168201806040525081019061099491906112a3565b600186815481106109a8576109a761125f565b5b9060005260206000200160009054906101000a900473ffffffffffffffffffffffffffffffffffffffff1673ffffffffffffffffffffffffffffffffffffffff16639f8982e86040518163ffffffff1660e01b815260040160206040518083038186803b158015610a1857600080fd5b505afa158015610a2c573d6000803e3d6000fd5b505050506040513d601f19601f82011682018060405250810190610a5091906112a3565b96509650965096509650965050610ab1565b8080610a6d90611389565b915050610501565b506040517f08c379a0000000000000000000000000000000000000000000000000000000008152600401610aa890611444565b60405180910390fd5b91939550919395565b60008060009054906101000a900461ffff16905090565b60018181548110610ae157600080fd5b906000526020600020016000915054906101000a900473ffffffffffffffffffffffffffffffffffffffff1681565b60008060009054906101000a900461ffff1661ffff16905090565b600060018261ffff1681548110610b4557610b4461125f565b5b9060005260206000200160009054906101000a900473ffffffffffffffffffffffffffffffffffffffff169050919050565b600080600090505b600180549050811015610c7f5760018181548110610ba057610b9f61125f565b5b9060005260206000200160009054906101000a900473ffffffffffffffffffffffffffffffffffffffff1673ffffffffffffffffffffffffffffffffffffffff1663f114404c6040518163ffffffff1660e01b815260040160006040518083038186803b158015610c1057600080fd5b505afa158015610c24573d6000803e3d6000fd5b505050506040513d6000823e3d601f19601f82011682018060405250810190610c4d9190611340565b8051906020012083805190602001201415610c6c576000915050610c85565b8080610c7790611389565b915050610b7f565b50600190505b919050565b610960806200146583390190565b6000604051905090565b600080fd5b600080fd5b600080fd5b600080fd5b6000601f19601f8301169050919050565b7f4e487b7100000000000000000000000000000000000000000000000000000000600052604160045260246000fd5b610cff82610cb6565b810181811067ffffffffffffffff82111715610d1e57610d1d610cc7565b5b80604052505050565b6000610d31610c98565b9050610d3d8282610cf6565b919050565b600067ffffffffffffffff821115610d5d57610d5c610cc7565b5b610d6682610cb6565b9050602081019050919050565b82818337600083830152505050565b6000610d95610d9084610d42565b610d27565b905082815260208101848484011115610db157610db0610cb1565b5b610dbc848285610d73565b509392505050565b600082601f830112610dd957610dd8610cac565b5b8135610de9848260208601610d82565b91505092915050565b600061ffff82169050919050565b610e0981610df2565b8114610e1457600080fd5b50565b600081359050610e2681610e00565b92915050565b600080600080600060a08688031215610e4857610e47610ca2565b5b600086013567ffffffffffffffff811115610e6657610e65610ca7565b5b610e7288828901610dc4565b955050602086013567ffffffffffffffff811115610e9357610e92610ca7565b5b610e9f88828901610dc4565b945050604086013567ffffffffffffffff811115610ec057610ebf610ca7565b5b610ecc88828901610dc4565b9350506060610edd88828901610e17565b9250506080610eee88828901610e17565b9150509295509295909350565b600060208284031215610f1157610f10610ca2565b5b6000610f1f84828501610e17565b91505092915050565b610f3181610df2565b82525050565b600081519050919050565b600082825260208201905092915050565b60005b83811015610f71578082015181840152602081019050610f56565b83811115610f80576000848401525b50505050565b6000610f9182610f37565b610f9b8185610f42565b9350610fab818560208601610f53565b610fb481610cb6565b840191505092915050565b600060c082019050610fd46000830189610f28565b8181036020830152610fe68188610f86565b90508181036040830152610ffa8187610f86565b9050818103606083015261100e8186610f86565b905061101d6080830185610f28565b61102a60a0830184610f28565b979650505050505050565b600060208201905061104a6000830184610f28565b92915050565b6000819050919050565b61106381611050565b811461106e57600080fd5b50565b6000813590506110808161105a565b92915050565b60006020828403121561109c5761109b610ca2565b5b60006110aa84828501611071565b91505092915050565b600073ffffffffffffffffffffffffffffffffffffffff82169050919050565b6000819050919050565b60006110f86110f36110ee846110b3565b6110d3565b6110b3565b9050919050565b600061110a826110dd565b9050919050565b600061111c826110ff565b9050919050565b61112c81611111565b82525050565b60006020820190506111476000830184611123565b92915050565b61115681611050565b82525050565b6000602082019050611171600083018461114d565b92915050565b600060208201905081810360008301526111918184610f86565b905092915050565b7f4e487b7100000000000000000000000000000000000000000000000000000000600052601160045260246000fd5b60006111d382610df2565b915061ffff8214156111e8576111e7611199565b5b600182019050919050565b7f4c6576656c206e616d65206973206e6f7420756e697175652021000000000000600082015250565b6000611229601a83610f42565b9150611234826111f3565b602082019050919050565b600060208201905081810360008301526112588161121c565b9050919050565b7f4e487b7100000000000000000000000000000000000000000000000000000000600052603260045260246000fd5b60008151905061129d81610e00565b92915050565b6000602082840312156112b9576112b8610ca2565b5b60006112c78482850161128e565b91505092915050565b60006112e36112de84610d42565b610d27565b9050828152602081018484840111156112ff576112fe610cb1565b5b61130a848285610f53565b509392505050565b600082601f83011261132757611326610cac565b5b81516113378482602086016112d0565b91505092915050565b60006020828403121561135657611355610ca2565b5b600082015167ffffffffffffffff81111561137457611373610ca7565b5b61138084828501611312565b91505092915050565b600061139482611050565b91507fffffffffffffffffffffffffffffffffffffffffffffffffffffffffffffffff8214156113c7576113c6611199565b5b600182019050919050565b7f4c6576656c20776974682074686973206964206973206e6f74204e6f7420666f60008201527f756e640000000000000000000000000000000000000000000000000000000000602082015250565b600061142e602383610f42565b9150611439826113d2565b604082019050919050565b6000602082019050818103600083015261145d81611421565b905091905056fe608060405234801561001057600080fd5b5060405161096038038061096083398181016040528101906100329190610093565b806000806101000a81548161ffff021916908361ffff160217905550506100c0565b600080fd5b600061ffff82169050919050565b61007081610059565b811461007b57600080fd5b50565b60008151905061008d81610067565b92915050565b6000602082840312156100a9576100a8610054565b5b60006100b78482850161007e565b91505092915050565b610891806100cf6000396000f3fe608060405234801561001057600080fd5b50600436106100a95760003560e01c806390c3f38f1161007157806390c3f38f1461013e5780639743a6911461015a5780639dbd916b146101785780639f8982e814610196578063cf156d7e146101b4578063f114404c146101d0576100a9565b80630e06622e146100ae5780631a092541146100cc5780632abff1f2146100ea57806385cef8f314610106578063906315b114610122575b600080fd5b6100b66101ee565b6040516100c39190610539565b60405180910390f35b6100d4610205565b6040516100e191906105ed565b60405180910390f35b61010460048036038101906100ff9190610758565b610297565b005b610120600480360381019061011b91906107cd565b6102b1565b005b61013c60048036038101906101379190610758565b6102d1565b005b61015860048036038101906101539190610758565b6102eb565b005b610162610305565b60405161016f91906105ed565b60405180910390f35b610180610397565b60405161018d9190610539565b60405180910390f35b61019e6103af565b6040516101ab9190610539565b60405180910390f35b6101ce60048036038101906101c991906107cd565b6103c7565b005b6101d86103e7565b6040516101e591906105ed565b60405180910390f35b60008060009054906101000a900461ffff16905090565b60606002805461021490610829565b80601f016020809104026020016040519081016040528092919081815260200182805461024090610829565b801561028d5780601f106102625761010080835404028352916020019161028d565b820191906000526020600020905b81548152906001019060200180831161027057829003601f168201915b5050505050905090565b80600390805190602001906102ad929190610479565b5050565b80600460006101000a81548161ffff021916908361ffff16021790555050565b80600190805190602001906102e7929190610479565b5050565b8060029080519060200190610301929190610479565b5050565b60606003805461031490610829565b80601f016020809104026020016040519081016040528092919081815260200182805461034090610829565b801561038d5780601f106103625761010080835404028352916020019161038d565b820191906000526020600020905b81548152906001019060200180831161037057829003601f168201915b5050505050905090565b6000600460029054906101000a900461ffff16905090565b6000600460009054906101000a900461ffff16905090565b80600460026101000a81548161ffff021916908361ffff16021790555050565b6060600180546103f690610829565b80601f016020809104026020016040519081016040528092919081815260200182805461042290610829565b801561046f5780601f106104445761010080835404028352916020019161046f565b820191906000526020600020905b81548152906001019060200180831161045257829003601f168201915b5050505050905090565b82805461048590610829565b90600052602060002090601f0160209004810192826104a757600085556104ee565b82601f106104c057805160ff19168380011785556104ee565b828001600101855582156104ee579182015b828111156104ed5782518255916020019190600101906104d2565b5b5090506104fb91906104ff565b5090565b5b80821115610518576000816000905550600101610500565b5090565b600061ffff82169050919050565b6105338161051c565b82525050565b600060208201905061054e600083018461052a565b92915050565b600081519050919050565b600082825260208201905092915050565b60005b8381101561058e578082015181840152602081019050610573565b8381111561059d576000848401525b50505050565b6000601f19601f8301169050919050565b60006105bf82610554565b6105c9818561055f565b93506105d9818560208601610570565b6105e2816105a3565b840191505092915050565b6000602082019050818103600083015261060781846105b4565b905092915050565b6000604051905090565b600080fd5b600080fd5b600080fd5b600080fd5b7f4e487b7100000000000000000000000000000000000000000000000000000000600052604160045260246000fd5b610665826105a3565b810181811067ffffffffffffffff821117156106845761068361062d565b5b80604052505050565b600061069761060f565b90506106a3828261065c565b919050565b600067ffffffffffffffff8211156106c3576106c261062d565b5b6106cc826105a3565b9050602081019050919050565b82818337600083830152505050565b60006106fb6106f6846106a8565b61068d565b90508281526020810184848401111561071757610716610628565b5b6107228482856106d9565b509392505050565b600082601f83011261073f5761073e610623565b5b813561074f8482602086016106e8565b91505092915050565b60006020828403121561076e5761076d610619565b5b600082013567ffffffffffffffff81111561078c5761078b61061e565b5b6107988482850161072a565b91505092915050565b6107aa8161051c565b81146107b557600080fd5b50565b6000813590506107c7816107a1565b92915050565b6000602082840312156107e3576107e2610619565b5b60006107f1848285016107b8565b91505092915050565b7f4e487b7100000000000000000000000000000000000000000000000000000000600052602260045260246000fd5b6000600282049050600182168061084157607f821691505b60208210811415610855576108546107fa565b5b5091905056fea2646970667358221220b3e4d4674c4b5bc80d135ecd2c25651f7b78ee3ee73e070772bcbcb078779d3364736f6c63430008090033a2646970667358221220d7d3b2efeefb75b52b108287b9235f98147c9c8fe1e3f26c41c029ee11e80f9c64736f6c63430008090033",
  "linkReferences": {},
  "deployedLinkReferences": {}
}