{
  "_format": "hh-sol-artifact-1",
  "contractName": "PathFactory",
  "sourceName": "contracts/PathFactory.sol",
  "abi": [
    {
      "anonymous": false,
      "inputs": [
        {
          "indexed": false,
          "internalType": "uint16",
          "name": "id",
          "type": "uint16"
        },
        {
          "indexed": false,
          "internalType": "string",
          "name": "pathName",
          "type": "string"
        },
        {
          "indexed": false,
          "internalType": "string",
          "name": "description",
          "type": "string"
        },
        {
          "indexed": false,
          "internalType": "string",
          "name": "imgUrl",
          "type": "string"
        }
      ],
      "name": "pathCreated",
      "type": "event"
    },
    {
      "inputs": [
        {
          "internalType": "string",
          "name": "_pathName",
          "type": "string"
        },
        {
          "internalType": "string",
          "name": "_description",
          "type": "string"
        },
        {
          "internalType": "string",
          "name": "_imageUrl",
          "type": "string"
        }
      ],
      "name": "createPath",
      "outputs": [],
      "stateMutability": "nonpayable",
      "type": "function"
    },
    {
      "inputs": [],
      "name": "getCurrentId",
      "outputs": [
        {
          "internalType": "uint16",
          "name": "",
          "type": "uint16"
        }
      ],
      "stateMutability": "view",
      "type": "function"
    },
    {
      "inputs": [
        {
          "internalType": "uint16",
          "name": "_id",
          "type": "uint16"
        }
      ],
      "name": "getPathById",
      "outputs": [
        {
          "internalType": "uint16",
          "name": "",
          "type": "uint16"
        },
        {
          "internalType": "string",
          "name": "",
          "type": "string"
        },
        {
          "internalType": "string",
          "name": "",
          "type": "string"
        },
        {
          "internalType": "string",
          "name": "",
          "type": "string"
        }
      ],
      "stateMutability": "view",
      "type": "function"
    },
    {
      "inputs": [],
      "name": "getPathsLength",
      "outputs": [
        {
          "internalType": "uint256",
          "name": "",
          "type": "uint256"
        }
      ],
      "stateMutability": "view",
      "type": "function"
    },
    {
      "inputs": [
        {
          "internalType": "string",
          "name": "_pathName",
          "type": "string"
        }
      ],
      "name": "isPathUnique",
      "outputs": [
        {
          "internalType": "bool",
          "name": "",
          "type": "bool"
        }
      ],
      "stateMutability": "view",
      "type": "function"
    }
  ],
  "bytecode": "0x608060405234801561001057600080fd5b506118a5806100206000396000f3fe608060405234801561001057600080fd5b50600436106100575760003560e01c80636c1438621461005c578063b657317e1461007a578063e54b0709146100aa578063f159775f146100c8578063f861e160146100e4575b600080fd5b610064610117565b6040516100719190610981565b60405180910390f35b610094600480360381019061008f9190610af6565b61012e565b6040516100a19190610b5a565b60405180910390f35b6100b2610241565b6040516100bf9190610b8e565b60405180910390f35b6100e260048036038101906100dd9190610ba9565b61024e565b005b6100fe60048036038101906100f99190610c7c565b610512565b60405161010e9493929190610d31565b60405180910390f35b60008060009054906101000a900461ffff16905090565b600080600090505b600180549050811015610236576001818154811061015757610156610d8b565b5b9060005260206000200160009054906101000a900473ffffffffffffffffffffffffffffffffffffffff1673ffffffffffffffffffffffffffffffffffffffff1663fea53e356040518163ffffffff1660e01b815260040160006040518083038186803b1580156101c757600080fd5b505afa1580156101db573d6000803e3d6000fd5b505050506040513d6000823e3d601f19601f820116820180604052508101906102049190610e2a565b805190602001208380519060200120141561022357600091505061023c565b808061022e90610ea2565b915050610136565b50600190505b919050565b6000600180549050905090565b6102578361012e565b156104d25760008060009054906101000a900461ffff1660405161027a90610957565b6102849190610981565b604051809103906000f0801580156102a0573d6000803e3d6000fd5b5090508073ffffffffffffffffffffffffffffffffffffffff1663d09b6b10856040518263ffffffff1660e01b81526004016102dc9190610eeb565b600060405180830381600087803b1580156102f657600080fd5b505af115801561030a573d6000803e3d6000fd5b505050508073ffffffffffffffffffffffffffffffffffffffff166390c3f38f846040518263ffffffff1660e01b81526004016103479190610eeb565b600060405180830381600087803b15801561036157600080fd5b505af1158015610375573d6000803e3d6000fd5b505050508073ffffffffffffffffffffffffffffffffffffffff16632abff1f2836040518263ffffffff1660e01b81526004016103b29190610eeb565b600060405180830381600087803b1580156103cc57600080fd5b505af11580156103e0573d6000803e3d6000fd5b505050506001819080600181540180825580915050600190039060005260206000200160009091909190916101000a81548173ffffffffffffffffffffffffffffffffffffffff021916908373ffffffffffffffffffffffffffffffffffffffff1602179055507f2a0c76696316e1301a29579df05bc1ae374f98740d85a4e19cca5a660220d81e60008054906101000a900461ffff1685858560405161048a9493929190610d31565b60405180910390a160008081819054906101000a900461ffff16809291906104b190610f0d565b91906101000a81548161ffff021916908361ffff160217905550505061050d565b6040517f08c379a000000000000000000000000000000000000000000000000000000000815260040161050490610f84565b60405180910390fd5b505050565b6000606080606060005b600180549050811015610914578561ffff166001828154811061054257610541610d8b565b5b9060005260206000200160009054906101000a900473ffffffffffffffffffffffffffffffffffffffff1673ffffffffffffffffffffffffffffffffffffffff16639f8982e86040518163ffffffff1660e01b815260040160206040518083038186803b1580156105b257600080fd5b505afa1580156105c6573d6000803e3d6000fd5b505050506040513d601f19601f820116820180604052508101906105ea9190610fb9565b61ffff161415610901576001818154811061060857610607610d8b565b5b9060005260206000200160009054906101000a900473ffffffffffffffffffffffffffffffffffffffff1673ffffffffffffffffffffffffffffffffffffffff16639f8982e86040518163ffffffff1660e01b815260040160206040518083038186803b15801561067857600080fd5b505afa15801561068c573d6000803e3d6000fd5b505050506040513d601f19601f820116820180604052508101906106b09190610fb9565b600182815481106106c4576106c3610d8b565b5b9060005260206000200160009054906101000a900473ffffffffffffffffffffffffffffffffffffffff1673ffffffffffffffffffffffffffffffffffffffff1663fea53e356040518163ffffffff1660e01b815260040160006040518083038186803b15801561073457600080fd5b505afa158015610748573d6000803e3d6000fd5b505050506040513d6000823e3d601f19601f820116820180604052508101906107719190610e2a565b6001838154811061078557610784610d8b565b5b9060005260206000200160009054906101000a900473ffffffffffffffffffffffffffffffffffffffff1673ffffffffffffffffffffffffffffffffffffffff16631a0925416040518163ffffffff1660e01b815260040160006040518083038186803b1580156107f557600080fd5b505afa158015610809573d6000803e3d6000fd5b505050506040513d6000823e3d601f19601f820116820180604052508101906108329190610e2a565b6001848154811061084657610845610d8b565b5b9060005260206000200160009054906101000a900473ffffffffffffffffffffffffffffffffffffffff1673ffffffffffffffffffffffffffffffffffffffff16639743a6916040518163ffffffff1660e01b815260040160006040518083038186803b1580156108b657600080fd5b505afa1580156108ca573d6000803e3d6000fd5b505050506040513d6000823e3d601f19601f820116820180604052508101906108f39190610e2a565b945094509450945050610950565b808061090c90610ea2565b91505061051c565b506040517f08c379a000000000000000000000000000000000000000000000000000000000815260040161094790611058565b60405180910390fd5b9193509193565b6107f78061107983390190565b600061ffff82169050919050565b61097b81610964565b82525050565b60006020820190506109966000830184610972565b92915050565b6000604051905090565b600080fd5b600080fd5b600080fd5b600080fd5b6000601f19601f8301169050919050565b7f4e487b7100000000000000000000000000000000000000000000000000000000600052604160045260246000fd5b610a03826109ba565b810181811067ffffffffffffffff82111715610a2257610a216109cb565b5b80604052505050565b6000610a3561099c565b9050610a4182826109fa565b919050565b600067ffffffffffffffff821115610a6157610a606109cb565b5b610a6a826109ba565b9050602081019050919050565b82818337600083830152505050565b6000610a99610a9484610a46565b610a2b565b905082815260208101848484011115610ab557610ab46109b5565b5b610ac0848285610a77565b509392505050565b600082601f830112610add57610adc6109b0565b5b8135610aed848260208601610a86565b91505092915050565b600060208284031215610b0c57610b0b6109a6565b5b600082013567ffffffffffffffff811115610b2a57610b296109ab565b5b610b3684828501610ac8565b91505092915050565b60008115159050919050565b610b5481610b3f565b82525050565b6000602082019050610b6f6000830184610b4b565b92915050565b6000819050919050565b610b8881610b75565b82525050565b6000602082019050610ba36000830184610b7f565b92915050565b600080600060608486031215610bc257610bc16109a6565b5b600084013567ffffffffffffffff811115610be057610bdf6109ab565b5b610bec86828701610ac8565b935050602084013567ffffffffffffffff811115610c0d57610c0c6109ab565b5b610c1986828701610ac8565b925050604084013567ffffffffffffffff811115610c3a57610c396109ab565b5b610c4686828701610ac8565b9150509250925092565b610c5981610964565b8114610c6457600080fd5b50565b600081359050610c7681610c50565b92915050565b600060208284031215610c9257610c916109a6565b5b6000610ca084828501610c67565b91505092915050565b600081519050919050565b600082825260208201905092915050565b60005b83811015610ce3578082015181840152602081019050610cc8565b83811115610cf2576000848401525b50505050565b6000610d0382610ca9565b610d0d8185610cb4565b9350610d1d818560208601610cc5565b610d26816109ba565b840191505092915050565b6000608082019050610d466000830187610972565b8181036020830152610d588186610cf8565b90508181036040830152610d6c8185610cf8565b90508181036060830152610d808184610cf8565b905095945050505050565b7f4e487b7100000000000000000000000000000000000000000000000000000000600052603260045260246000fd5b6000610dcd610dc884610a46565b610a2b565b905082815260208101848484011115610de957610de86109b5565b5b610df4848285610cc5565b509392505050565b600082601f830112610e1157610e106109b0565b5b8151610e21848260208601610dba565b91505092915050565b600060208284031215610e4057610e3f6109a6565b5b600082015167ffffffffffffffff811115610e5e57610e5d6109ab565b5b610e6a84828501610dfc565b91505092915050565b7f4e487b7100000000000000000000000000000000000000000000000000000000600052601160045260246000fd5b6000610ead82610b75565b91507fffffffffffffffffffffffffffffffffffffffffffffffffffffffffffffffff821415610ee057610edf610e73565b5b600182019050919050565b60006020820190508181036000830152610f058184610cf8565b905092915050565b6000610f1882610964565b915061ffff821415610f2d57610f2c610e73565b5b600182019050919050565b7f50617468206e616d6520616c7265616479206578697374732021000000000000600082015250565b6000610f6e601a83610cb4565b9150610f7982610f38565b602082019050919050565b60006020820190508181036000830152610f9d81610f61565b9050919050565b600081519050610fb381610c50565b92915050565b600060208284031215610fcf57610fce6109a6565b5b6000610fdd84828501610fa4565b91505092915050565b7f5061746820776974682074686973206964206973206e6f74204e6f7420666f7560008201527f6e64000000000000000000000000000000000000000000000000000000000000602082015250565b6000611042602283610cb4565b915061104d82610fe6565b604082019050919050565b6000602082019050818103600083015261107181611035565b905091905056fe608060405234801561001057600080fd5b506040516107f73803806107f783398181016040528101906100329190610093565b806000806101000a81548161ffff021916908361ffff160217905550506100c0565b600080fd5b600061ffff82169050919050565b61007081610059565b811461007b57600080fd5b50565b60008151905061008d81610067565b92915050565b6000602082840312156100a9576100a8610054565b5b60006100b78482850161007e565b91505092915050565b610728806100cf6000396000f3fe608060405234801561001057600080fd5b506004361061007d5760003560e01c80639743a6911161005b5780639743a691146100d85780639f8982e8146100f6578063d09b6b1014610114578063fea53e35146101305761007d565b80631a092541146100825780632abff1f2146100a057806390c3f38f146100bc575b600080fd5b61008a61014e565b60405161009791906104a5565b60405180910390f35b6100ba60048036038101906100b59190610610565b6101e0565b005b6100d660048036038101906100d19190610610565b6101fa565b005b6100e0610214565b6040516100ed91906104a5565b60405180910390f35b6100fe6102a6565b60405161010b9190610676565b60405180910390f35b61012e60048036038101906101299190610610565b6102bd565b005b6101386102d7565b60405161014591906104a5565b60405180910390f35b60606002805461015d906106c0565b80601f0160208091040260200160405190810160405280929190818152602001828054610189906106c0565b80156101d65780601f106101ab576101008083540402835291602001916101d6565b820191906000526020600020905b8154815290600101906020018083116101b957829003601f168201915b5050505050905090565b80600390805190602001906101f6929190610369565b5050565b8060029080519060200190610210929190610369565b5050565b606060038054610223906106c0565b80601f016020809104026020016040519081016040528092919081815260200182805461024f906106c0565b801561029c5780601f106102715761010080835404028352916020019161029c565b820191906000526020600020905b81548152906001019060200180831161027f57829003601f168201915b5050505050905090565b60008060009054906101000a900461ffff16905090565b80600190805190602001906102d3929190610369565b5050565b6060600180546102e6906106c0565b80601f0160208091040260200160405190810160405280929190818152602001828054610312906106c0565b801561035f5780601f106103345761010080835404028352916020019161035f565b820191906000526020600020905b81548152906001019060200180831161034257829003601f168201915b5050505050905090565b828054610375906106c0565b90600052602060002090601f01602090048101928261039757600085556103de565b82601f106103b057805160ff19168380011785556103de565b828001600101855582156103de579182015b828111156103dd5782518255916020019190600101906103c2565b5b5090506103eb91906103ef565b5090565b5b808211156104085760008160009055506001016103f0565b5090565b600081519050919050565b600082825260208201905092915050565b60005b8381101561044657808201518184015260208101905061042b565b83811115610455576000848401525b50505050565b6000601f19601f8301169050919050565b60006104778261040c565b6104818185610417565b9350610491818560208601610428565b61049a8161045b565b840191505092915050565b600060208201905081810360008301526104bf818461046c565b905092915050565b6000604051905090565b600080fd5b600080fd5b600080fd5b600080fd5b7f4e487b7100000000000000000000000000000000000000000000000000000000600052604160045260246000fd5b61051d8261045b565b810181811067ffffffffffffffff8211171561053c5761053b6104e5565b5b80604052505050565b600061054f6104c7565b905061055b8282610514565b919050565b600067ffffffffffffffff82111561057b5761057a6104e5565b5b6105848261045b565b9050602081019050919050565b82818337600083830152505050565b60006105b36105ae84610560565b610545565b9050828152602081018484840111156105cf576105ce6104e0565b5b6105da848285610591565b509392505050565b600082601f8301126105f7576105f66104db565b5b81356106078482602086016105a0565b91505092915050565b600060208284031215610626576106256104d1565b5b600082013567ffffffffffffffff811115610644576106436104d6565b5b610650848285016105e2565b91505092915050565b600061ffff82169050919050565b61067081610659565b82525050565b600060208201905061068b6000830184610667565b92915050565b7f4e487b7100000000000000000000000000000000000000000000000000000000600052602260045260246000fd5b600060028204905060018216806106d857607f821691505b602082108114156106ec576106eb610691565b5b5091905056fea26469706673582212203c8cb2eaed393c9fadd9ccf45af4793d6ce05d3250ebe605c720487e7cf9375f64736f6c63430008090033a264697066735822122056f2d17d6293fa05a37b5fc7cd7cdc53763f67aaf1bbe9317b1131765a06224664736f6c63430008090033",
  "linkReferences": {},
  "deployedLinkReferences": {}
}