{
  "_format": "hh-sol-artifact-1",
  "contractName": "SessionFactory",
  "sourceName": "contracts/SessionFactory.sol",
  "abi": [
    {
      "anonymous": false,
      "inputs": [
        {
          "indexed": false,
          "internalType": "uint16",
          "name": "id",
          "type": "uint16"
        },
        {
          "indexed": false,
          "internalType": "string",
          "name": "name",
          "type": "string"
        },
        {
          "indexed": false,
          "internalType": "uint256",
          "name": "date",
          "type": "uint256"
        },
        {
          "indexed": false,
          "internalType": "uint16",
          "name": "levelId",
          "type": "uint16"
        }
      ],
      "name": "sessionCreated",
      "type": "event"
    },
    {
      "inputs": [
        {
          "internalType": "string",
          "name": "_name",
          "type": "string"
        },
        {
          "internalType": "uint256",
          "name": "_date",
          "type": "uint256"
        },
        {
          "internalType": "uint16",
          "name": "_levelId",
          "type": "uint16"
        }
      ],
      "name": "createSession",
      "outputs": [],
      "stateMutability": "nonpayable",
      "type": "function"
    },
    {
      "inputs": [],
      "name": "getCurrentId",
      "outputs": [
        {
          "internalType": "uint16",
          "name": "",
          "type": "uint16"
        }
      ],
      "stateMutability": "view",
      "type": "function"
    },
    {
      "inputs": [
        {
          "internalType": "uint16",
          "name": "_id",
          "type": "uint16"
        }
      ],
      "name": "getSessionById",
      "outputs": [
        {
          "internalType": "uint16",
          "name": "",
          "type": "uint16"
        },
        {
          "internalType": "string",
          "name": "",
          "type": "string"
        },
        {
          "internalType": "uint256",
          "name": "",
          "type": "uint256"
        },
        {
          "internalType": "uint16",
          "name": "",
          "type": "uint16"
        }
      ],
      "stateMutability": "view",
      "type": "function"
    },
    {
      "inputs": [],
      "name": "getSessionsLength",
      "outputs": [
        {
          "internalType": "uint256",
          "name": "",
          "type": "uint256"
        }
      ],
      "stateMutability": "view",
      "type": "function"
    }
  ],
  "bytecode": "0x608060405234801561001057600080fd5b50611618806100206000396000f3fe608060405234801561001057600080fd5b506004361061004c5760003560e01c8063128e89a8146100515780636c1438621461006f57806379e7371a1461008d578063c716313e146100c0575b600080fd5b6100596100dc565b60405161006691906107d7565b60405180910390f35b6100776100e9565b604051610084919061080f565b60405180910390f35b6100a760048036038101906100a2919061086a565b610100565b6040516100b79493929190610930565b60405180910390f35b6100da60048036038101906100d59190610add565b61053b565b005b6000600180549050905090565b60008060009054906101000a900461ffff16905090565b6000606060008060005b6001805490508110156104f8578561ffff16600182815481106101305761012f610b4c565b5b9060005260206000200160009054906101000a900473ffffffffffffffffffffffffffffffffffffffff1673ffffffffffffffffffffffffffffffffffffffff16635d1ca6316040518163ffffffff1660e01b815260040160206040518083038186803b1580156101a057600080fd5b505afa1580156101b4573d6000803e3d6000fd5b505050506040513d601f19601f820116820180604052508101906101d89190610b90565b61ffff1614156104e557600181815481106101f6576101f5610b4c565b5b9060005260206000200160009054906101000a900473ffffffffffffffffffffffffffffffffffffffff1673ffffffffffffffffffffffffffffffffffffffff16635d1ca6316040518163ffffffff1660e01b815260040160206040518083038186803b15801561026657600080fd5b505afa15801561027a573d6000803e3d6000fd5b505050506040513d601f19601f8201168201806040525081019061029e9190610b90565b600182815481106102b2576102b1610b4c565b5b9060005260206000200160009054906101000a900473ffffffffffffffffffffffffffffffffffffffff1673ffffffffffffffffffffffffffffffffffffffff166317d7de7c6040518163ffffffff1660e01b815260040160006040518083038186803b15801561032257600080fd5b505afa158015610336573d6000803e3d6000fd5b505050506040513d6000823e3d601f19601f8201168201806040525081019061035f9190610c2d565b6001838154811061037357610372610b4c565b5b9060005260206000200160009054906101000a900473ffffffffffffffffffffffffffffffffffffffff1673ffffffffffffffffffffffffffffffffffffffff1663430fe9c16040518163ffffffff1660e01b815260040160206040518083038186803b1580156103e357600080fd5b505afa1580156103f7573d6000803e3d6000fd5b505050506040513d601f19601f8201168201806040525081019061041b9190610c8b565b6001848154811061042f5761042e610b4c565b5b9060005260206000200160009054906101000a900473ffffffffffffffffffffffffffffffffffffffff1673ffffffffffffffffffffffffffffffffffffffff16630e06622e6040518163ffffffff1660e01b815260040160206040518083038186803b15801561049f57600080fd5b505afa1580156104b3573d6000803e3d6000fd5b505050506040513d601f19601f820116820180604052508101906104d79190610b90565b945094509450945050610534565b80806104f090610ce7565b91505061010a565b506040517f08c379a000000000000000000000000000000000000000000000000000000000815260040161052b90610da2565b60405180910390fd5b9193509193565b60008060009054906101000a900461ffff16604051610559906107b1565b610563919061080f565b604051809103906000f08015801561057f573d6000803e3d6000fd5b5090508073ffffffffffffffffffffffffffffffffffffffff1663c47f0027856040518263ffffffff1660e01b81526004016105bb9190610dc2565b600060405180830381600087803b1580156105d557600080fd5b505af11580156105e9573d6000803e3d6000fd5b505050508073ffffffffffffffffffffffffffffffffffffffff1663d04e48f1846040518263ffffffff1660e01b815260040161062691906107d7565b600060405180830381600087803b15801561064057600080fd5b505af1158015610654573d6000803e3d6000fd5b505050508073ffffffffffffffffffffffffffffffffffffffff1663f19c522e836040518263ffffffff1660e01b8152600401610691919061080f565b600060405180830381600087803b1580156106ab57600080fd5b505af11580156106bf573d6000803e3d6000fd5b505050506001819080600181540180825580915050600190039060005260206000200160009091909190916101000a81548173ffffffffffffffffffffffffffffffffffffffff021916908373ffffffffffffffffffffffffffffffffffffffff1602179055507f3fe1eab8bc6fbc8c9eb507138920f756ad88b4c05186c58eb32afaf3223f82cb60008054906101000a900461ffff168585856040516107699493929190610930565b60405180910390a160008081819054906101000a900461ffff168092919061079090610de4565b91906101000a81548161ffff021916908361ffff1602179055505050505050565b6107d380610e1083390190565b6000819050919050565b6107d1816107be565b82525050565b60006020820190506107ec60008301846107c8565b92915050565b600061ffff82169050919050565b610809816107f2565b82525050565b60006020820190506108246000830184610800565b92915050565b6000604051905090565b600080fd5b600080fd5b610847816107f2565b811461085257600080fd5b50565b6000813590506108648161083e565b92915050565b6000602082840312156108805761087f610834565b5b600061088e84828501610855565b91505092915050565b600081519050919050565b600082825260208201905092915050565b60005b838110156108d15780820151818401526020810190506108b6565b838111156108e0576000848401525b50505050565b6000601f19601f8301169050919050565b600061090282610897565b61090c81856108a2565b935061091c8185602086016108b3565b610925816108e6565b840191505092915050565b60006080820190506109456000830187610800565b818103602083015261095781866108f7565b905061096660408301856107c8565b6109736060830184610800565b95945050505050565b600080fd5b600080fd5b7f4e487b7100000000000000000000000000000000000000000000000000000000600052604160045260246000fd5b6109be826108e6565b810181811067ffffffffffffffff821117156109dd576109dc610986565b5b80604052505050565b60006109f061082a565b90506109fc82826109b5565b919050565b600067ffffffffffffffff821115610a1c57610a1b610986565b5b610a25826108e6565b9050602081019050919050565b82818337600083830152505050565b6000610a54610a4f84610a01565b6109e6565b905082815260208101848484011115610a7057610a6f610981565b5b610a7b848285610a32565b509392505050565b600082601f830112610a9857610a9761097c565b5b8135610aa8848260208601610a41565b91505092915050565b610aba816107be565b8114610ac557600080fd5b50565b600081359050610ad781610ab1565b92915050565b600080600060608486031215610af657610af5610834565b5b600084013567ffffffffffffffff811115610b1457610b13610839565b5b610b2086828701610a83565b9350506020610b3186828701610ac8565b9250506040610b4286828701610855565b9150509250925092565b7f4e487b7100000000000000000000000000000000000000000000000000000000600052603260045260246000fd5b600081519050610b8a8161083e565b92915050565b600060208284031215610ba657610ba5610834565b5b6000610bb484828501610b7b565b91505092915050565b6000610bd0610bcb84610a01565b6109e6565b905082815260208101848484011115610bec57610beb610981565b5b610bf78482856108b3565b509392505050565b600082601f830112610c1457610c1361097c565b5b8151610c24848260208601610bbd565b91505092915050565b600060208284031215610c4357610c42610834565b5b600082015167ffffffffffffffff811115610c6157610c60610839565b5b610c6d84828501610bff565b91505092915050565b600081519050610c8581610ab1565b92915050565b600060208284031215610ca157610ca0610834565b5b6000610caf84828501610c76565b91505092915050565b7f4e487b7100000000000000000000000000000000000000000000000000000000600052601160045260246000fd5b6000610cf2826107be565b91507fffffffffffffffffffffffffffffffffffffffffffffffffffffffffffffffff821415610d2557610d24610cb8565b5b600182019050919050565b7f53657373696f6e20776974682074686973206964206973206e6f74204e6f742060008201527f666f756e64000000000000000000000000000000000000000000000000000000602082015250565b6000610d8c6025836108a2565b9150610d9782610d30565b604082019050919050565b60006020820190508181036000830152610dbb81610d7f565b9050919050565b60006020820190508181036000830152610ddc81846108f7565b905092915050565b6000610def826107f2565b915061ffff821415610e0457610e03610cb8565b5b60018201905091905056fe608060405234801561001057600080fd5b506040516107d33803806107d383398181016040528101906100329190610094565b80600160006101000a81548161ffff021916908361ffff160217905550506100c1565b600080fd5b600061ffff82169050919050565b6100718161005a565b811461007c57600080fd5b50565b60008151905061008e81610068565b92915050565b6000602082840312156100aa576100a9610055565b5b60006100b88482850161007f565b91505092915050565b610703806100d06000396000f3fe608060405234801561001057600080fd5b506004361061007d5760003560e01c80635d1ca6311161005b5780635d1ca631146100dc578063c47f0027146100fa578063d04e48f114610116578063f19c522e146101325761007d565b80630e06622e1461008257806317d7de7c146100a0578063430fe9c1146100be575b600080fd5b61008a61014e565b604051610097919061031e565b60405180910390f35b6100a8610166565b6040516100b591906103d2565b60405180910390f35b6100c66101f8565b6040516100d3919061040d565b60405180910390f35b6100e4610202565b6040516100f1919061031e565b60405180910390f35b610114600480360381019061010f9190610571565b61021a565b005b610130600480360381019061012b91906105e6565b610234565b005b61014c6004803603810190610147919061063f565b61023e565b005b6000600360009054906101000a900461ffff16905090565b6060600080546101759061069b565b80601f01602080910402602001604051908101604052809291908181526020018280546101a19061069b565b80156101ee5780601f106101c3576101008083540402835291602001916101ee565b820191906000526020600020905b8154815290600101906020018083116101d157829003601f168201915b5050505050905090565b6000600254905090565b6000600160009054906101000a900461ffff16905090565b806000908051906020019061023092919061025e565b5050565b8060028190555050565b80600360006101000a81548161ffff021916908361ffff16021790555050565b82805461026a9061069b565b90600052602060002090601f01602090048101928261028c57600085556102d3565b82601f106102a557805160ff19168380011785556102d3565b828001600101855582156102d3579182015b828111156102d25782518255916020019190600101906102b7565b5b5090506102e091906102e4565b5090565b5b808211156102fd5760008160009055506001016102e5565b5090565b600061ffff82169050919050565b61031881610301565b82525050565b6000602082019050610333600083018461030f565b92915050565b600081519050919050565b600082825260208201905092915050565b60005b83811015610373578082015181840152602081019050610358565b83811115610382576000848401525b50505050565b6000601f19601f8301169050919050565b60006103a482610339565b6103ae8185610344565b93506103be818560208601610355565b6103c781610388565b840191505092915050565b600060208201905081810360008301526103ec8184610399565b905092915050565b6000819050919050565b610407816103f4565b82525050565b600060208201905061042260008301846103fe565b92915050565b6000604051905090565b600080fd5b600080fd5b600080fd5b600080fd5b7f4e487b7100000000000000000000000000000000000000000000000000000000600052604160045260246000fd5b61047e82610388565b810181811067ffffffffffffffff8211171561049d5761049c610446565b5b80604052505050565b60006104b0610428565b90506104bc8282610475565b919050565b600067ffffffffffffffff8211156104dc576104db610446565b5b6104e582610388565b9050602081019050919050565b82818337600083830152505050565b600061051461050f846104c1565b6104a6565b9050828152602081018484840111156105305761052f610441565b5b61053b8482856104f2565b509392505050565b600082601f8301126105585761055761043c565b5b8135610568848260208601610501565b91505092915050565b60006020828403121561058757610586610432565b5b600082013567ffffffffffffffff8111156105a5576105a4610437565b5b6105b184828501610543565b91505092915050565b6105c3816103f4565b81146105ce57600080fd5b50565b6000813590506105e0816105ba565b92915050565b6000602082840312156105fc576105fb610432565b5b600061060a848285016105d1565b91505092915050565b61061c81610301565b811461062757600080fd5b50565b60008135905061063981610613565b92915050565b60006020828403121561065557610654610432565b5b60006106638482850161062a565b91505092915050565b7f4e487b7100000000000000000000000000000000000000000000000000000000600052602260045260246000fd5b600060028204905060018216806106b357607f821691505b602082108114156106c7576106c661066c565b5b5091905056fea2646970667358221220f5d9d93978b280eb78c3c8de06d638119dead8cac72079ed40b805838eee8bde64736f6c63430008090033a2646970667358221220281975fe5015933ddd0e65140b92229d4f1bfe3daa6ee4df73fbcb3a9b2d9eec64736f6c63430008090033",
  "linkReferences": {},
  "deployedLinkReferences": {}
}