{
  "_format": "hh-sol-artifact-1",
  "contractName": "StudentLevelFactory",
  "sourceName": "contracts/StudentLevelFactory.sol",
  "abi": [
    {
      "anonymous": false,
      "inputs": [
        {
          "indexed": false,
          "internalType": "uint16",
          "name": "",
          "type": "uint16"
        },
        {
          "indexed": false,
          "internalType": "uint16",
          "name": "",
          "type": "uint16"
        },
        {
          "indexed": false,
          "internalType": "uint16",
          "name": "",
          "type": "uint16"
        }
      ],
      "name": "studentLevelCreated",
      "type": "event"
    },
    {
      "inputs": [
        {
          "internalType": "uint16",
          "name": "_studentId",
          "type": "uint16"
        },
        {
          "internalType": "uint16",
          "name": "_levelId",
          "type": "uint16"
        },
        {
          "internalType": "address",
          "name": "_lvlFactory",
          "type": "address"
        }
      ],
      "name": "createStudentLevel",
      "outputs": [],
      "stateMutability": "nonpayable",
      "type": "function"
    },
    {
      "inputs": [
        {
          "internalType": "uint16",
          "name": "_levelId",
          "type": "uint16"
        }
      ],
      "name": "getLevelStudentsId",
      "outputs": [
        {
          "internalType": "uint16[]",
          "name": "",
          "type": "uint16[]"
        }
      ],
      "stateMutability": "view",
      "type": "function"
    },
    {
      "inputs": [
        {
          "internalType": "uint16",
          "name": "_studentId",
          "type": "uint16"
        }
      ],
      "name": "getStudentLevelsId",
      "outputs": [
        {
          "internalType": "uint16[]",
          "name": "",
          "type": "uint16[]"
        }
      ],
      "stateMutability": "view",
      "type": "function"
    },
    {
      "inputs": [
        {
          "internalType": "uint16",
          "name": "_studentId",
          "type": "uint16"
        },
        {
          "internalType": "uint16",
          "name": "_levelId",
          "type": "uint16"
        }
      ],
      "name": "isStudentLevelUnique",
      "outputs": [
        {
          "internalType": "bool",
          "name": "",
          "type": "bool"
        }
      ],
      "stateMutability": "view",
      "type": "function"
    }
  ],
  "bytecode": "0x608060405234801561001057600080fd5b5061176e806100206000396000f3fe60806040523480156200001157600080fd5b5060043610620000525760003560e01c806336a07a8f146200005757806376b0d2b1146200008d578063d240594b14620000c3578063e390556814620000e3575b600080fd5b6200007560048036038101906200006f919062000a60565b62000119565b60405162000084919062000ac4565b60405180910390f35b620000ab6004803603810190620000a5919062000ae1565b62000305565b604051620000ba919062000be1565b60405180910390f35b620000e16004803603810190620000db919062000c6a565b620005be565b005b620001016004803603810190620000fb919062000ae1565b62000755565b60405162000110919062000be1565b60405180910390f35b600080600090505b600180549050811015620002f9576001818154811062000146576200014562000cc6565b5b9060005260206000200160009054906101000a900473ffffffffffffffffffffffffffffffffffffffff1673ffffffffffffffffffffffffffffffffffffffff166351546e656040518163ffffffff1660e01b815260040160206040518083038186803b158015620001b757600080fd5b505afa158015620001cc573d6000803e3d6000fd5b505050506040513d601f19601f82011682018060405250810190620001f2919062000d0c565b61ffff168461ffff16148015620002d25750600181815481106200021b576200021a62000cc6565b5b9060005260206000200160009054906101000a900473ffffffffffffffffffffffffffffffffffffffff1673ffffffffffffffffffffffffffffffffffffffff16630e06622e6040518163ffffffff1660e01b815260040160206040518083038186803b1580156200028c57600080fd5b505afa158015620002a1573d6000803e3d6000fd5b505050506040513d601f19601f82011682018060405250810190620002c7919062000d0c565b61ffff168361ffff16145b15620002e3576000915050620002ff565b8080620002f09062000d77565b91505062000121565b50600190505b92915050565b6060600060018054905067ffffffffffffffff8111156200032b576200032a62000dc5565b5b6040519080825280602002602001820160405280156200035a5781602001602082028036833780820191505090505b5090506000806001905060005b6001805490508161ffff1610156200056e578561ffff1660018261ffff168154811062000399576200039862000cc6565b5b9060005260206000200160009054906101000a900473ffffffffffffffffffffffffffffffffffffffff1673ffffffffffffffffffffffffffffffffffffffff166351546e656040518163ffffffff1660e01b815260040160206040518083038186803b1580156200040a57600080fd5b505afa1580156200041f573d6000803e3d6000fd5b505050506040513d601f19601f8201168201806040525081019062000445919062000d0c565b61ffff16141562000558576000915060018161ffff16815481106200046f576200046e62000cc6565b5b9060005260206000200160009054906101000a900473ffffffffffffffffffffffffffffffffffffffff1673ffffffffffffffffffffffffffffffffffffffff16630e06622e6040518163ffffffff1660e01b815260040160206040518083038186803b158015620004e057600080fd5b505afa158015620004f5573d6000803e3d6000fd5b505050506040513d601f19601f820116820180604052508101906200051b919062000d0c565b84848151811062000531576200053062000cc6565b5b602002602001019061ffff16908161ffff16815250508280620005549062000d77565b9350505b8080620005659062000df4565b91505062000367565b508015620005b3576040517f08c379a0000000000000000000000000000000000000000000000000000000008152600401620005aa9062000e85565b60405180910390fd5b829350505050919050565b620005ca838362000119565b15620007135760008060009054906101000a900461ffff16848484604051620005f39062000a0e565b62000602949392919062000ec9565b604051809103906000f0801580156200061f573d6000803e3d6000fd5b5090506001819080600181540180825580915050600190039060005260206000200160009091909190916101000a81548173ffffffffffffffffffffffffffffffffffffffff021916908373ffffffffffffffffffffffffffffffffffffffff1602179055507f0e130d7808e6c3f3f95dcbab5b1358e6e4d33d441a9b6253b93a5a6266dfc82b60008054906101000a900461ffff168585604051620006c89392919062000f16565b60405180910390a160008081819054906101000a900461ffff1680929190620006f19062000df4565b91906101000a81548161ffff021916908361ffff160217905550505062000750565b6040517f08c379a0000000000000000000000000000000000000000000000000000000008152600401620007479062000fc9565b60405180910390fd5b505050565b6060600060018054905067ffffffffffffffff8111156200077b576200077a62000dc5565b5b604051908082528060200260200182016040528015620007aa5781602001602082028036833780820191505090505b5090506000806001905060005b6001805490508161ffff161015620009be578561ffff1660018261ffff1681548110620007e957620007e862000cc6565b5b9060005260206000200160009054906101000a900473ffffffffffffffffffffffffffffffffffffffff1673ffffffffffffffffffffffffffffffffffffffff16630e06622e6040518163ffffffff1660e01b815260040160206040518083038186803b1580156200085a57600080fd5b505afa1580156200086f573d6000803e3d6000fd5b505050506040513d601f19601f8201168201806040525081019062000895919062000d0c565b61ffff161415620009a8576000915060018161ffff1681548110620008bf57620008be62000cc6565b5b9060005260206000200160009054906101000a900473ffffffffffffffffffffffffffffffffffffffff1673ffffffffffffffffffffffffffffffffffffffff166351546e656040518163ffffffff1660e01b815260040160206040518083038186803b1580156200093057600080fd5b505afa15801562000945573d6000803e3d6000fd5b505050506040513d601f19601f820116820180604052508101906200096b919062000d0c565b84848151811062000981576200098062000cc6565b5b602002602001019061ffff16908161ffff16815250508280620009a49062000d77565b9350505b8080620009b59062000df4565b915050620007b7565b50801562000a03576040517f08c379a0000000000000000000000000000000000000000000000000000000008152600401620009fa9062000e85565b60405180910390fd5b829350505050919050565b61074d8062000fec83390190565b600080fd5b600061ffff82169050919050565b62000a3a8162000a21565b811462000a4657600080fd5b50565b60008135905062000a5a8162000a2f565b92915050565b6000806040838503121562000a7a5762000a7962000a1c565b5b600062000a8a8582860162000a49565b925050602062000a9d8582860162000a49565b9150509250929050565b60008115159050919050565b62000abe8162000aa7565b82525050565b600060208201905062000adb600083018462000ab3565b92915050565b60006020828403121562000afa5762000af962000a1c565b5b600062000b0a8482850162000a49565b91505092915050565b600081519050919050565b600082825260208201905092915050565b6000819050602082019050919050565b62000b4a8162000a21565b82525050565b600062000b5e838362000b3f565b60208301905092915050565b6000602082019050919050565b600062000b848262000b13565b62000b90818562000b1e565b935062000b9d8362000b2f565b8060005b8381101562000bd457815162000bb8888262000b50565b975062000bc58362000b6a565b92505060018101905062000ba1565b5085935050505092915050565b6000602082019050818103600083015262000bfd818462000b77565b905092915050565b600073ffffffffffffffffffffffffffffffffffffffff82169050919050565b600062000c328262000c05565b9050919050565b62000c448162000c25565b811462000c5057600080fd5b50565b60008135905062000c648162000c39565b92915050565b60008060006060848603121562000c865762000c8562000a1c565b5b600062000c968682870162000a49565b935050602062000ca98682870162000a49565b925050604062000cbc8682870162000c53565b9150509250925092565b7f4e487b7100000000000000000000000000000000000000000000000000000000600052603260045260246000fd5b60008151905062000d068162000a2f565b92915050565b60006020828403121562000d255762000d2462000a1c565b5b600062000d358482850162000cf5565b91505092915050565b7f4e487b7100000000000000000000000000000000000000000000000000000000600052601160045260246000fd5b6000819050919050565b600062000d848262000d6d565b91507fffffffffffffffffffffffffffffffffffffffffffffffffffffffffffffffff82141562000dba5762000db962000d3e565b5b600182019050919050565b7f4e487b7100000000000000000000000000000000000000000000000000000000600052604160045260246000fd5b600062000e018262000a21565b915061ffff82141562000e195762000e1862000d3e565b5b600182019050919050565b600082825260208201905092915050565b7f4e6f206f626a65637420666f756e640000000000000000000000000000000000600082015250565b600062000e6d600f8362000e24565b915062000e7a8262000e35565b602082019050919050565b6000602082019050818103600083015262000ea08162000e5e565b9050919050565b62000eb28162000a21565b82525050565b62000ec38162000c25565b82525050565b600060808201905062000ee0600083018762000ea7565b62000eef602083018662000ea7565b62000efe604083018562000ea7565b62000f0d606083018462000eb8565b95945050505050565b600060608201905062000f2d600083018662000ea7565b62000f3c602083018562000ea7565b62000f4b604083018462000ea7565b949350505050565b7f546869732073747564656e742d4c6576656c20616c726561647920657869737460008201527f7300000000000000000000000000000000000000000000000000000000000000602082015250565b600062000fb160218362000e24565b915062000fbe8262000f53565b604082019050919050565b6000602082019050818103600083015262000fe48162000fa2565b905091905056fe608060405234801561001057600080fd5b5060405161074d38038061074d833981810160405281019061003291906103e2565b80600060086101000a81548173ffffffffffffffffffffffffffffffffffffffff021916908373ffffffffffffffffffffffffffffffffffffffff16021790555060008060089054906101000a900473ffffffffffffffffffffffffffffffffffffffff16905060008173ffffffffffffffffffffffffffffffffffffffff1663f110ecff856040518263ffffffff1660e01b81526004016100d49190610458565b60206040518083038186803b1580156100ec57600080fd5b505afa158015610100573d6000803e3d6000fd5b505050506040513d601f19601f8201168201806040525081019061012491906104b1565b905060008173ffffffffffffffffffffffffffffffffffffffff16639dbd916b6040518163ffffffff1660e01b815260040160206040518083038186803b15801561016e57600080fd5b505afa158015610182573d6000803e3d6000fd5b505050506040513d601f19601f820116820180604052508101906101a691906104de565b61ffff1611156102ff578073ffffffffffffffffffffffffffffffffffffffff1663cf156d7e60018373ffffffffffffffffffffffffffffffffffffffff16639dbd916b6040518163ffffffff1660e01b815260040160206040518083038186803b15801561021457600080fd5b505afa158015610228573d6000803e3d6000fd5b505050506040513d601f19601f8201168201806040525081019061024c91906104de565b610256919061053a565b6040518263ffffffff1660e01b81526004016102729190610458565b600060405180830381600087803b15801561028c57600080fd5b505af11580156102a0573d6000803e3d6000fd5b50505050846000806101000a81548161ffff021916908361ffff16021790555083600060026101000a81548161ffff021916908361ffff16021790555085600060046101000a81548161ffff021916908361ffff16021790555061033a565b6040517f08c379a0000000000000000000000000000000000000000000000000000000008152600401610331906105cb565b60405180910390fd5b5050505050506105eb565b600080fd5b600061ffff82169050919050565b6103618161034a565b811461036c57600080fd5b50565b60008151905061037e81610358565b92915050565b600073ffffffffffffffffffffffffffffffffffffffff82169050919050565b60006103af82610384565b9050919050565b6103bf816103a4565b81146103ca57600080fd5b50565b6000815190506103dc816103b6565b92915050565b600080600080608085870312156103fc576103fb610345565b5b600061040a8782880161036f565b945050602061041b8782880161036f565b935050604061042c8782880161036f565b925050606061043d878288016103cd565b91505092959194509250565b6104528161034a565b82525050565b600060208201905061046d6000830184610449565b92915050565b600061047e826103a4565b9050919050565b61048e81610473565b811461049957600080fd5b50565b6000815190506104ab81610485565b92915050565b6000602082840312156104c7576104c6610345565b5b60006104d58482850161049c565b91505092915050565b6000602082840312156104f4576104f3610345565b5b60006105028482850161036f565b91505092915050565b7f4e487b7100000000000000000000000000000000000000000000000000000000600052601160045260246000fd5b60006105458261034a565b91506105508361034a565b9250828210156105635761056261050b565b5b828203905092915050565b600082825260208201905092915050565b7f7468657265206e6f20706c61636573206c656674000000000000000000000000600082015250565b60006105b560148361056e565b91506105c08261057f565b602082019050919050565b600060208201905081810360008301526105e4816105a8565b9050919050565b610153806105fa6000396000f3fe608060405234801561001057600080fd5b50600436106100415760003560e01c80630e06622e1461004657806351546e65146100645780635d1ca63114610082575b600080fd5b61004e6100a0565b60405161005b9190610102565b60405180910390f35b61006c6100b7565b6040516100799190610102565b60405180910390f35b61008a6100ce565b6040516100979190610102565b60405180910390f35b60008060029054906101000a900461ffff16905090565b60008060009054906101000a900461ffff16905090565b60008060049054906101000a900461ffff16905090565b600061ffff82169050919050565b6100fc816100e5565b82525050565b600060208201905061011760008301846100f3565b9291505056fea2646970667358221220d23e4f51de7e2f5b6b4ac33a835fb8f19c60776f0e3c7529813cdba5472da95d64736f6c63430008090033a264697066735822122001e30c220f237b412499bffdef4c08fd2199261d0ef6cce375eef5b8aab7dd0b64736f6c63430008090033",
  "linkReferences": {},
  "deployedLinkReferences": {}
}