{
  "_format": "hh-sol-artifact-1",
  "contractName": "StudentFactory",
  "sourceName": "contracts/StudentFactory.sol",
  "abi": [
    {
      "anonymous": false,
      "inputs": [
        {
          "indexed": false,
          "internalType": "uint16",
          "name": "",
          "type": "uint16"
        },
        {
          "indexed": false,
          "internalType": "string",
          "name": "",
          "type": "string"
        },
        {
          "indexed": false,
          "internalType": "string",
          "name": "",
          "type": "string"
        },
        {
          "indexed": false,
          "internalType": "address",
          "name": "",
          "type": "address"
        },
        {
          "indexed": false,
          "internalType": "string",
          "name": "",
          "type": "string"
        }
      ],
      "name": "studentCreated",
      "type": "event"
    },
    {
      "inputs": [
        {
          "internalType": "string",
          "name": "_firstName",
          "type": "string"
        },
        {
          "internalType": "string",
          "name": "_lastName",
          "type": "string"
        },
        {
          "internalType": "string",
          "name": "_email",
          "type": "string"
        },
        {
          "internalType": "address",
          "name": "_account",
          "type": "address"
        }
      ],
      "name": "createStudent",
      "outputs": [],
      "stateMutability": "nonpayable",
      "type": "function"
    },
    {
      "inputs": [],
      "name": "getCurrentId",
      "outputs": [
        {
          "internalType": "uint16",
          "name": "",
          "type": "uint16"
        }
      ],
      "stateMutability": "view",
      "type": "function"
    },
    {
      "inputs": [
        {
          "internalType": "address",
          "name": "account",
          "type": "address"
        }
      ],
      "name": "getStudentByAccount",
      "outputs": [
        {
          "internalType": "uint16",
          "name": "",
          "type": "uint16"
        },
        {
          "internalType": "string",
          "name": "",
          "type": "string"
        },
        {
          "internalType": "string",
          "name": "",
          "type": "string"
        },
        {
          "internalType": "address",
          "name": "",
          "type": "address"
        },
        {
          "internalType": "string",
          "name": "",
          "type": "string"
        }
      ],
      "stateMutability": "view",
      "type": "function"
    },
    {
      "inputs": [
        {
          "internalType": "uint16",
          "name": "_id",
          "type": "uint16"
        }
      ],
      "name": "getStudentById",
      "outputs": [
        {
          "internalType": "uint16",
          "name": "",
          "type": "uint16"
        },
        {
          "internalType": "string",
          "name": "",
          "type": "string"
        },
        {
          "internalType": "string",
          "name": "",
          "type": "string"
        },
        {
          "internalType": "address",
          "name": "",
          "type": "address"
        },
        {
          "internalType": "string",
          "name": "",
          "type": "string"
        }
      ],
      "stateMutability": "view",
      "type": "function"
    },
    {
      "inputs": [],
      "name": "getStudentsLength",
      "outputs": [
        {
          "internalType": "uint256",
          "name": "",
          "type": "uint256"
        }
      ],
      "stateMutability": "view",
      "type": "function"
    },
    {
      "inputs": [
        {
          "internalType": "address",
          "name": "_account",
          "type": "address"
        }
      ],
      "name": "isStudentUnique",
      "outputs": [
        {
          "internalType": "bool",
          "name": "",
          "type": "bool"
        }
      ],
      "stateMutability": "view",
      "type": "function"
    }
  ],
  "bytecode": "0x608060405234801561001057600080fd5b506124bf806100206000396000f3fe60806040523480156200001157600080fd5b50600436106200006a5760003560e01c8063409002d0146200006f5780636c14386214620000a95780638351741014620000cb578063b807be3814620000eb578063e4c27223146200010d578063e6f3ce7e1462000147575b600080fd5b6200008d600480360381019062000087919062001148565b6200017d565b604051620000a09594939291906200124e565b60405180910390f35b620000b3620006da565b604051620000c29190620012c0565b60405180910390f35b620000e96004803603810190620000e391906200142e565b620006f1565b005b620000f562000a42565b60405162000104919062001518565b60405180910390f35b6200012b600480360381019062000125919062001566565b62000a4f565b6040516200013e9594939291906200124e565b60405180910390f35b6200016560048036038101906200015f919062001148565b62000f88565b604051620001749190620015b5565b60405180910390f35b60006060806000606060005b60018054905081101562000693578673ffffffffffffffffffffffffffffffffffffffff1660018281548110620001c557620001c4620015d2565b5b9060005260206000200160009054906101000a900473ffffffffffffffffffffffffffffffffffffffff1673ffffffffffffffffffffffffffffffffffffffff1663db613e816040518163ffffffff1660e01b815260040160206040518083038186803b1580156200023657600080fd5b505afa1580156200024b573d6000803e3d6000fd5b505050506040513d601f19601f8201168201806040525081019062000271919062001618565b73ffffffffffffffffffffffffffffffffffffffff1614156200067d5760018181548110620002a557620002a4620015d2565b5b9060005260206000200160009054906101000a900473ffffffffffffffffffffffffffffffffffffffff1673ffffffffffffffffffffffffffffffffffffffff16635d1ca6316040518163ffffffff1660e01b815260040160206040518083038186803b1580156200031657600080fd5b505afa1580156200032b573d6000803e3d6000fd5b505050506040513d601f19601f8201168201806040525081019062000351919062001661565b60018281548110620003685762000367620015d2565b5b9060005260206000200160009054906101000a900473ffffffffffffffffffffffffffffffffffffffff1673ffffffffffffffffffffffffffffffffffffffff1663932997f16040518163ffffffff1660e01b815260040160006040518083038186803b158015620003d957600080fd5b505afa158015620003ee573d6000803e3d6000fd5b505050506040513d6000823e3d601f19601f8201168201806040525081019062000419919062001711565b6001838154811062000430576200042f620015d2565b5b9060005260206000200160009054906101000a900473ffffffffffffffffffffffffffffffffffffffff1673ffffffffffffffffffffffffffffffffffffffff16636b1092826040518163ffffffff1660e01b815260040160006040518083038186803b158015620004a157600080fd5b505afa158015620004b6573d6000803e3d6000fd5b505050506040513d6000823e3d601f19601f82011682018060405250810190620004e1919062001711565b60018481548110620004f857620004f7620015d2565b5b9060005260206000200160009054906101000a900473ffffffffffffffffffffffffffffffffffffffff1673ffffffffffffffffffffffffffffffffffffffff1663db613e816040518163ffffffff1660e01b815260040160206040518083038186803b1580156200056957600080fd5b505afa1580156200057e573d6000803e3d6000fd5b505050506040513d601f19601f82011682018060405250810190620005a4919062001618565b60018581548110620005bb57620005ba620015d2565b5b9060005260206000200160009054906101000a900473ffffffffffffffffffffffffffffffffffffffff1673ffffffffffffffffffffffffffffffffffffffff16637e79e8ba6040518163ffffffff1660e01b815260040160006040518083038186803b1580156200062c57600080fd5b505afa15801562000641573d6000803e3d6000fd5b505050506040513d6000823e3d601f19601f820116820180604052508101906200066c919062001711565b9550955095509550955050620006d1565b80806200068a9062001791565b91505062000189565b506040517f08c379a0000000000000000000000000000000000000000000000000000000008152600401620006c89062001855565b60405180910390fd5b91939590929450565b60008060009054906101000a900461ffff16905090565b620006fc8162000f88565b15620009ff5760008060009054906101000a900461ffff166040516200072290620010c1565b6200072e9190620012c0565b604051809103906000f0801580156200074b573d6000803e3d6000fd5b5090508073ffffffffffffffffffffffffffffffffffffffff16636392f76b866040518263ffffffff1660e01b815260040162000789919062001877565b600060405180830381600087803b158015620007a457600080fd5b505af1158015620007b9573d6000803e3d6000fd5b505050508073ffffffffffffffffffffffffffffffffffffffff1663932754f9856040518263ffffffff1660e01b8152600401620007f8919062001877565b600060405180830381600087803b1580156200081357600080fd5b505af115801562000828573d6000803e3d6000fd5b505050508073ffffffffffffffffffffffffffffffffffffffff1663282b065a846040518263ffffffff1660e01b815260040162000867919062001877565b600060405180830381600087803b1580156200088257600080fd5b505af115801562000897573d6000803e3d6000fd5b505050508073ffffffffffffffffffffffffffffffffffffffff166329f6d57c836040518263ffffffff1660e01b8152600401620008d691906200189b565b600060405180830381600087803b158015620008f157600080fd5b505af115801562000906573d6000803e3d6000fd5b505050506001819080600181540180825580915050600190039060005260206000200160009091909190916101000a81548173ffffffffffffffffffffffffffffffffffffffff021916908373ffffffffffffffffffffffffffffffffffffffff1602179055507fda56846db9b58e4c2a791c05174d90348a6af0a94465efbf2b68168605404c4760008054906101000a900461ffff1686868587604051620009b49594939291906200124e565b60405180910390a160008081819054906101000a900461ffff1680929190620009dd90620018b8565b91906101000a81548161ffff021916908361ffff160217905550505062000a3c565b6040517f08c379a000000000000000000000000000000000000000000000000000000000815260040162000a339062001938565b60405180910390fd5b50505050565b6000600180549050905090565b60006060806000606060005b60018054905081101562000f41578661ffff166001828154811062000a855762000a84620015d2565b5b9060005260206000200160009054906101000a900473ffffffffffffffffffffffffffffffffffffffff1673ffffffffffffffffffffffffffffffffffffffff16635d1ca6316040518163ffffffff1660e01b815260040160206040518083038186803b15801562000af657600080fd5b505afa15801562000b0b573d6000803e3d6000fd5b505050506040513d601f19601f8201168201806040525081019062000b31919062001661565b61ffff16141562000f2b576001818154811062000b535762000b52620015d2565b5b9060005260206000200160009054906101000a900473ffffffffffffffffffffffffffffffffffffffff1673ffffffffffffffffffffffffffffffffffffffff16635d1ca6316040518163ffffffff1660e01b815260040160206040518083038186803b15801562000bc457600080fd5b505afa15801562000bd9573d6000803e3d6000fd5b505050506040513d601f19601f8201168201806040525081019062000bff919062001661565b6001828154811062000c165762000c15620015d2565b5b9060005260206000200160009054906101000a900473ffffffffffffffffffffffffffffffffffffffff1673ffffffffffffffffffffffffffffffffffffffff1663932997f16040518163ffffffff1660e01b815260040160006040518083038186803b15801562000c8757600080fd5b505afa15801562000c9c573d6000803e3d6000fd5b505050506040513d6000823e3d601f19601f8201168201806040525081019062000cc7919062001711565b6001838154811062000cde5762000cdd620015d2565b5b9060005260206000200160009054906101000a900473ffffffffffffffffffffffffffffffffffffffff1673ffffffffffffffffffffffffffffffffffffffff16636b1092826040518163ffffffff1660e01b815260040160006040518083038186803b15801562000d4f57600080fd5b505afa15801562000d64573d6000803e3d6000fd5b505050506040513d6000823e3d601f19601f8201168201806040525081019062000d8f919062001711565b6001848154811062000da65762000da5620015d2565b5b9060005260206000200160009054906101000a900473ffffffffffffffffffffffffffffffffffffffff1673ffffffffffffffffffffffffffffffffffffffff1663db613e816040518163ffffffff1660e01b815260040160206040518083038186803b15801562000e1757600080fd5b505afa15801562000e2c573d6000803e3d6000fd5b505050506040513d601f19601f8201168201806040525081019062000e52919062001618565b6001858154811062000e695762000e68620015d2565b5b9060005260206000200160009054906101000a900473ffffffffffffffffffffffffffffffffffffffff1673ffffffffffffffffffffffffffffffffffffffff16637e79e8ba6040518163ffffffff1660e01b815260040160006040518083038186803b15801562000eda57600080fd5b505afa15801562000eef573d6000803e3d6000fd5b505050506040513d6000823e3d601f19601f8201168201806040525081019062000f1a919062001711565b955095509550955095505062000f7f565b808062000f389062001791565b91505062000a5b565b506040517f08c379a000000000000000000000000000000000000000000000000000000000815260040162000f7690620019d0565b60405180910390fd5b91939590929450565b600080600090505b600180549050811015620010b6576001818154811062000fb55762000fb4620015d2565b5b9060005260206000200160009054906101000a900473ffffffffffffffffffffffffffffffffffffffff1673ffffffffffffffffffffffffffffffffffffffff1663db613e816040518163ffffffff1660e01b815260040160206040518083038186803b1580156200102657600080fd5b505afa1580156200103b573d6000803e3d6000fd5b505050506040513d601f19601f8201168201806040525081019062001061919062001618565b73ffffffffffffffffffffffffffffffffffffffff168373ffffffffffffffffffffffffffffffffffffffff161415620010a0576000915050620010bc565b8080620010ad9062001791565b91505062000f90565b50600190505b919050565b610a9780620019f383390190565b6000604051905090565b600080fd5b600080fd5b600073ffffffffffffffffffffffffffffffffffffffff82169050919050565b60006200111082620010e3565b9050919050565b620011228162001103565b81146200112e57600080fd5b50565b600081359050620011428162001117565b92915050565b600060208284031215620011615762001160620010d9565b5b6000620011718482850162001131565b91505092915050565b600061ffff82169050919050565b62001193816200117a565b82525050565b600081519050919050565b600082825260208201905092915050565b60005b83811015620011d5578082015181840152602081019050620011b8565b83811115620011e5576000848401525b50505050565b6000601f19601f8301169050919050565b6000620012098262001199565b620012158185620011a4565b935062001227818560208601620011b5565b6200123281620011eb565b840191505092915050565b620012488162001103565b82525050565b600060a08201905062001265600083018862001188565b8181036020830152620012798187620011fc565b905081810360408301526200128f8186620011fc565b9050620012a060608301856200123d565b8181036080830152620012b48184620011fc565b90509695505050505050565b6000602082019050620012d7600083018462001188565b92915050565b600080fd5b600080fd5b7f4e487b7100000000000000000000000000000000000000000000000000000000600052604160045260246000fd5b6200132182620011eb565b810181811067ffffffffffffffff82111715620013435762001342620012e7565b5b80604052505050565b600062001358620010cf565b905062001366828262001316565b919050565b600067ffffffffffffffff821115620013895762001388620012e7565b5b6200139482620011eb565b9050602081019050919050565b82818337600083830152505050565b6000620013c7620013c1846200136b565b6200134c565b905082815260208101848484011115620013e657620013e5620012e2565b5b620013f3848285620013a1565b509392505050565b600082601f830112620014135762001412620012dd565b5b813562001425848260208601620013b0565b91505092915050565b600080600080608085870312156200144b576200144a620010d9565b5b600085013567ffffffffffffffff8111156200146c576200146b620010de565b5b6200147a87828801620013fb565b945050602085013567ffffffffffffffff8111156200149e576200149d620010de565b5b620014ac87828801620013fb565b935050604085013567ffffffffffffffff811115620014d057620014cf620010de565b5b620014de87828801620013fb565b9250506060620014f18782880162001131565b91505092959194509250565b6000819050919050565b6200151281620014fd565b82525050565b60006020820190506200152f600083018462001507565b92915050565b62001540816200117a565b81146200154c57600080fd5b50565b600081359050620015608162001535565b92915050565b6000602082840312156200157f576200157e620010d9565b5b60006200158f848285016200154f565b91505092915050565b60008115159050919050565b620015af8162001598565b82525050565b6000602082019050620015cc6000830184620015a4565b92915050565b7f4e487b7100000000000000000000000000000000000000000000000000000000600052603260045260246000fd5b600081519050620016128162001117565b92915050565b600060208284031215620016315762001630620010d9565b5b6000620016418482850162001601565b91505092915050565b6000815190506200165b8162001535565b92915050565b6000602082840312156200167a5762001679620010d9565b5b60006200168a848285016200164a565b91505092915050565b6000620016aa620016a4846200136b565b6200134c565b905082815260208101848484011115620016c957620016c8620012e2565b5b620016d6848285620011b5565b509392505050565b600082601f830112620016f657620016f5620012dd565b5b81516200170884826020860162001693565b91505092915050565b6000602082840312156200172a5762001729620010d9565b5b600082015167ffffffffffffffff8111156200174b576200174a620010de565b5b6200175984828501620016de565b91505092915050565b7f4e487b7100000000000000000000000000000000000000000000000000000000600052601160045260246000fd5b60006200179e82620014fd565b91507fffffffffffffffffffffffffffffffffffffffffffffffffffffffffffffffff821415620017d457620017d362001762565b5b600182019050919050565b7f53747564656e7420776974682074686973206163636f756e742061646472657360008201527f73206973206e6f74204e6f7420666f756e640000000000000000000000000000602082015250565b60006200183d603283620011a4565b91506200184a82620017df565b604082019050919050565b6000602082019050818103600083015262001870816200182e565b9050919050565b60006020820190508181036000830152620018938184620011fc565b905092915050565b6000602082019050620018b260008301846200123d565b92915050565b6000620018c5826200117a565b915061ffff821415620018dd57620018dc62001762565b5b600182019050919050565b7f546869732073747564656e7420616c7265616479206578697374730000000000600082015250565b600062001920601b83620011a4565b91506200192d82620018e8565b602082019050919050565b60006020820190508181036000830152620019538162001911565b9050919050565b7f53747564656e7420776974682074686973206964206973206e6f74204e6f742060008201527f666f756e64000000000000000000000000000000000000000000000000000000602082015250565b6000620019b8602583620011a4565b9150620019c5826200195a565b604082019050919050565b60006020820190508181036000830152620019eb81620019a9565b905091905056fe608060405234801561001057600080fd5b50604051610a97380380610a9783398181016040528101906100329190610094565b80600260006101000a81548161ffff021916908361ffff160217905550506100c1565b600080fd5b600061ffff82169050919050565b6100718161005a565b811461007c57600080fd5b50565b60008151905061008e81610068565b92915050565b6000602082840312156100aa576100a9610055565b5b60006100b88482850161007f565b91505092915050565b6109c7806100d06000396000f3fe608060405234801561001057600080fd5b50600436106100935760003560e01c80636b109282116100665780636b1092821461010a5780637e79e8ba14610128578063932754f914610146578063932997f114610162578063db613e811461018057610093565b8063282b065a1461009857806329f6d57c146100b45780635d1ca631146100d05780636392f76b146100ee575b600080fd5b6100b260048036038101906100ad91906106a3565b61019e565b005b6100ce60048036038101906100c9919061074a565b6101b8565b005b6100d86101fc565b6040516100e59190610794565b60405180910390f35b6101086004803603810190610103919061080f565b610214565b005b61011261022a565b60405161011f91906108e4565b60405180910390f35b6101306102bc565b60405161013d91906108e4565b60405180910390f35b610160600480360381019061015b919061080f565b61034e565b005b61016a610364565b60405161017791906108e4565b60405180910390f35b6101886103f6565b6040516101959190610915565b60405180910390f35b80600390805190602001906101b4929190610420565b5050565b80600460006101000a81548173ffffffffffffffffffffffffffffffffffffffff021916908373ffffffffffffffffffffffffffffffffffffffff16021790555050565b6000600260009054906101000a900461ffff16905090565b8181600091906102259291906104a6565b505050565b6060600180546102399061095f565b80601f01602080910402602001604051908101604052809291908181526020018280546102659061095f565b80156102b25780601f10610287576101008083540402835291602001916102b2565b820191906000526020600020905b81548152906001019060200180831161029557829003601f168201915b5050505050905090565b6060600380546102cb9061095f565b80601f01602080910402602001604051908101604052809291908181526020018280546102f79061095f565b80156103445780601f1061031957610100808354040283529160200191610344565b820191906000526020600020905b81548152906001019060200180831161032757829003601f168201915b5050505050905090565b81816001919061035f9291906104a6565b505050565b6060600080546103739061095f565b80601f016020809104026020016040519081016040528092919081815260200182805461039f9061095f565b80156103ec5780601f106103c1576101008083540402835291602001916103ec565b820191906000526020600020905b8154815290600101906020018083116103cf57829003601f168201915b5050505050905090565b6000600460009054906101000a900473ffffffffffffffffffffffffffffffffffffffff16905090565b82805461042c9061095f565b90600052602060002090601f01602090048101928261044e5760008555610495565b82601f1061046757805160ff1916838001178555610495565b82800160010185558215610495579182015b82811115610494578251825591602001919060010190610479565b5b5090506104a2919061052c565b5090565b8280546104b29061095f565b90600052602060002090601f0160209004810192826104d4576000855561051b565b82601f106104ed57803560ff191683800117855561051b565b8280016001018555821561051b579182015b8281111561051a5782358255916020019190600101906104ff565b5b509050610528919061052c565b5090565b5b8082111561054557600081600090555060010161052d565b5090565b6000604051905090565b600080fd5b600080fd5b600080fd5b600080fd5b6000601f19601f8301169050919050565b7f4e487b7100000000000000000000000000000000000000000000000000000000600052604160045260246000fd5b6105b082610567565b810181811067ffffffffffffffff821117156105cf576105ce610578565b5b80604052505050565b60006105e2610549565b90506105ee82826105a7565b919050565b600067ffffffffffffffff82111561060e5761060d610578565b5b61061782610567565b9050602081019050919050565b82818337600083830152505050565b6000610646610641846105f3565b6105d8565b90508281526020810184848401111561066257610661610562565b5b61066d848285610624565b509392505050565b600082601f83011261068a5761068961055d565b5b813561069a848260208601610633565b91505092915050565b6000602082840312156106b9576106b8610553565b5b600082013567ffffffffffffffff8111156106d7576106d6610558565b5b6106e384828501610675565b91505092915050565b600073ffffffffffffffffffffffffffffffffffffffff82169050919050565b6000610717826106ec565b9050919050565b6107278161070c565b811461073257600080fd5b50565b6000813590506107448161071e565b92915050565b6000602082840312156107605761075f610553565b5b600061076e84828501610735565b91505092915050565b600061ffff82169050919050565b61078e81610777565b82525050565b60006020820190506107a96000830184610785565b92915050565b600080fd5b600080fd5b60008083601f8401126107cf576107ce61055d565b5b8235905067ffffffffffffffff8111156107ec576107eb6107af565b5b602083019150836001820283011115610808576108076107b4565b5b9250929050565b6000806020838503121561082657610825610553565b5b600083013567ffffffffffffffff81111561084457610843610558565b5b610850858286016107b9565b92509250509250929050565b600081519050919050565b600082825260208201905092915050565b60005b8381101561089657808201518184015260208101905061087b565b838111156108a5576000848401525b50505050565b60006108b68261085c565b6108c08185610867565b93506108d0818560208601610878565b6108d981610567565b840191505092915050565b600060208201905081810360008301526108fe81846108ab565b905092915050565b61090f8161070c565b82525050565b600060208201905061092a6000830184610906565b92915050565b7f4e487b7100000000000000000000000000000000000000000000000000000000600052602260045260246000fd5b6000600282049050600182168061097757607f821691505b6020821081141561098b5761098a610930565b5b5091905056fea26469706673582212206003ae3026c3806a4adf94885d55d4fb80df7e87da4060d190dfe10e270262da64736f6c63430008090033a2646970667358221220ed11b5015e6f8dcab363da5d9c4722cf7cf8510b2faf2e24a1484c2672ac98ed64736f6c63430008090033",
  "linkReferences": {},
  "deployedLinkReferences": {}
}